:060000000C94DC000C94DE
:1000060000000C9400000C9400000C9400000C946A
:1000160000000C9400000C9400000C9400000C945A
:1000260000000C9400000C9400000C9400000C944A
:1000360000000C9400000C9400000C9400000C943A
:1000460000000C9400000C9400000C9400004D4934
:100056004641524520436C617373696320314B00FE
:100066004D494641524520436C61737369632034A0
:100076004B00556C7472616C696768742F4E5441FD
:100086004700556E6B6E6F776E2F6F7468657200E2
:100096001027E80364000A000100001000011000A8
:1000A6000100FFFFFFFFFFFF57524954455F5445CC
:1000B60053545F3132333421000000000000000049
:1000C60000000000000000000400253032580052F5
:1000D60043353232205265616479005363616E2084
:1000E6006120636172642E2E2E0053656C65637405
:1000F600206661696C65640053414B3A253032587D
:10010600005549443A253032582530325825303288
:100116005825303258004F6E6C7920436C617373EA
:10012600696320525700417574682042342E2E2E82
:100136000041757468204641494C0052656164204F
:100146004572720057726974652B526561642E2E72
:100156002E005772697465204641494C0052652D40
:1001660072656164204641494C004D415443482024
:100176004845583A004D49534D4154434820484557
:10018600583A0041534349493A004845585B382E8E
:100196002E31355D3A0041534349495B382E2E5D79
:1001A6003A0080C006006002A80002006602A801AC
:1001B6000000F894EE27ECBBF1E0FBBFEBBFE5BF18
:1001C6008DE0A2E0BB27ED938A95E9F780E098E001
:1001D600A0E6ED930197E9F7EAEAF1E085919591BA
:1001E600009761F0A591B59105901590BF01F001BA
:1001F60005900D920197E1F7FB01F0CFEFE5EDBF1A
:10020600E8E0EEBFC0E6D2E00C94E704C498089597
:10021600C49A0895AA93FADFE981EE0FEE77AE2F1E
:100226000E94DE06A8810E94DE06F2DF0C947306A9
:10023600AA931A93EBDFE981EE0FEE77E068AE2F13
:100246000E94DE06A0E00E94DE061E2FE1DFE12FFF
:1002560018810C9473060E94A708A981EA2BAE2F79
:10026600D9DF0C9473060E94A708AE2FE981E095AA
:10027600EA23AE2FCFDF0C947306E1E0EA93AFE0FA
:10028600C9DFA2E3B0E00E94A7090895A4E1D0DF88
:10029600E37021F4E4E1EA93A3E0DDDF0895EDDF06
:1002A600EAE2EA93ADE8B6DFEBE2EA93AEE3B2DF69
:1002B600EDE2EA93AEE1AEDFECE20E94AD08E5E1E5
:1002C600EA93A0E4A7DFE1E1EA93ADE3A3DFDEDF93
:1002D60008950E94B1080E94B60810E0EB811E172F
:1002E60040F4E9E0EA93AD81BE810E94BB081F5F3E
:1002F600F5CFE1E0EA93A3E08DDF10E01F3F30F495
:10030600A5E096DFE47011F41F5FF8CFA2E290DF5C
:10031600A981BA81EC93A1E28BDFA981BA811196FA
:10032600EC93188126960895BA93AA930E94C80959
:10033600E2E0EA93A7EF6EDFE4E0EA93A0E893DF5A
:100346000E94B608E1E00E94AD0810E0E8851E179D
:1003560040F4E9E0EA93AA85BB850E94BB081F5FCB
:10036600F5CFE1E0EA93ACE055DFEDE0EA93A0E8F3
:1003760072DF18ECA4E05CDF0E2F115011F0E07371
:1003860009F001C0F7CFEDE0EA93A0E86CDF10308A
:1003960011F4E0E0F3C0A6E04BDFEB7111F0E0E012
:1003A600EDC0AAE045DF0E2FACE042DFE7703E2F3E
:1003B600EC81FD81309781F0303039F0E02FE1504B
:1003C600EE0FEE0FEE0FE30F04C0E02FEE0FEE0F71
:1003D600EE0FAC81BD81EC9310E0101778F4E12F9D
:1003E600AE81BF81F0E0EA0FFB1FFF93EF93A9E018
:1003F6001FDFAF91BF91EC931F5FEFCFE1E0BEC06F
:10040600BA93AA9324971A930A93188500E0EDE00D
:10041600EA93A7E0FFDEEDB7FEB7FA93EA931F93E0
:10042600E1E00E94C108ADB7BEB70F937DDF0F9123
:100436001F91E03011F4E0E011C0EDE00E94AD083C
:10044600003111F0E0E00AC0EA81AE81BF81EC9391
:10045600EB81AE81BF811196EC93E1E019810881B1
:1004660029960895BA93AA932C971A930A9310E0A3
:10047600E889EC87E0E2ED87EDE00E94AD08EEE06A
:10048600EA93A0E8C7DEFE013C96FA93EA93E2E01F
:100496000E94C108ADB7BEB71F9346DF1F91E0307B
:1004A60011F4E0E011C0183211F0E0E00DC000E0F8
:1004B600053048F4E02FAE85BF850E94C7080E942C
:1004C600CE080F5FF5CFE1E01981088161960895A6
:1004D600BA93AA9325970E94C80930E0E3E90E94DF
:1004E600D60811F4E0E04AC0AC81A83879F5ED8170
:1004F600A985BA85EC93EE81A985BA851196EC9308
:10050600EF81A985BA851296EC93E5E90E94D60893
:1005160011F4E0E033C00E94DD0811F0E0E02EC0E7
:10052600EC81A985BA851396EC93ED81A985BA85E8
:100536001496EC93EE81A985BA851596EC93EF8116
:10054600A985BA851696EC9337E017C00E94DD0898
:1005560011F0E0E013C000E0043070F4E02FA9854C
:10056600BA850E94C708DE011496AE0FBF1FEC9134
:10057600D001EC930F5FF0CF34E0E32F0E94CF0958
:100586002B960895BA93AA93A881B981AC91E88174
:10059600F981E181AE27E881F981E281AE27E88120
:1005A600F981E381EA270C947306BA93AA932F97ED
:1005B6001A930A9310E0EDE00E94AD08AB89BC895E
:1005C600E1DF0E2FED89E887E0E7E987AB89BC8993
:1005D600EC91EA87EB89FC89E181EB87EB89FC8961
:1005E600E281EC87EB89FC89E381ED87FE013E968B
:1005F6000083FE013896FA93EA93E7E0EA93DE0178
:10060600199667DEEE81EF87EF81E88BFE0138965B
:10061600FA93EA93E9E00E94C108ADB7BEB71F930B
:1006260083DE1F91E03011F4E0E009C0183111F0CB
:10063600E0E005C0EA81A989BA89EC93E1E0198175
:10064600088166960895BA93AA9324971A93AF8160
:10065600A430A9F4A885B985EC91E983E885F985E4
:10066600E181EA83E885F985E281EB83E885F9850E
:10067600E3810E94E808A885B98597DF34C0AF8179
:10068600A73081F5E8E8E983A885B985EC91EA8386
:10069600E885F985E181EB83E885F985E2810E94A9
:1006A600E808ADB7BEB71F9380DF1F91E030D1F0E9
:1006B600E885F985E381E983E885F985E481EA83BC
:1006C600E885F985E581EB83E885F985E681EC83A4
:1006D600E5E9EA93FE013296FA93EA93A885B9858D
:1006E60064DF01C0E0E018812A960895BA93AA93C0
:1006F6001A930E94F00821F0A12F0E948106F9CFDB
:100706000C94AE06AA931A93E981EC7F1E2F18303B
:1007160029F4E4E5F0E018810C947306183129F405
:10072600E6E6F0E018810C947306103029F4E8E749
:10073600F0E018810C947306E8E8F0E018810C9458
:1007460073060E94B1080E94B608E9E0EA93A0E6A3
:1007560061DDE9E0EA93AC815DDD10E0163050F42E
:10076600E9E0EA93E12FF0E0E05AFD4FA08152DD87
:100776001F5FF4CF10E0143040F4E9E0EA93AA8159
:10078600BB810E94BB081F5FF6CFE1E0EA93AEE0B3
:1007960041DD10E0183C60F4A8E04ADDE87011F095
:1007A600E1E007C0A1E0B0E00E94A7091F5FF2CF19
:1007B600E0E0188124960895E8E0EA93A8E053DD86
:1007C600E1E00E94AD080895BA93AA93A6971A93FA
:1007D6000A9310E0E0E3ECA3EAA5EDA3FE01B496CC
:1007E600FA93EA93E2E0EA93DE01959672DDEAA1D6
:1007F600EEA3EBA1EFA3FE01B496FA93EA93E4E02D
:100806000E94C108ADB7BEB71F938EDD1F91E030C1
:1008160011F4E0E011C0103810F4E0E00DC000E083
:10082600003148F4E02FA8A5B9A50E94C7080E9488
:10083600CE080F5FF5CFE1E019810881AB960895E8
:10084600BA93AA93A0971A930A9310E0E0EAEE8F60
:10085600ECA1EF8FFE017E96FA93EA93E2E00E9406
:10086600FA08E8A3ED8DE9A3FE017E96FA93EA93D2
:10087600E4E0EA93FE017796FA93EA93ADB7BEB742
:100886001F9352DD1F91E03011F4E0E042C01430B6
:1008960021F4EC89EF70EA3011F0E0E03AC000E0B4
:1008A600003188F4E02FF0E0DE011296EA0FFB1F1C
:1008B6000F01AAA1BBA1EE27A00FBE1FEC91D0018C
:1008C600EC930F5FEDCFEAA1FBA1FA93EA93E0E187
:1008D6000E94FA08EA8BED8DEB8BFE013296FA93B5
:1008E600EA93E2E1EA93FE017796FA93EA93ADB7CB
:1008F600BEB71F9319DD1F91E03011F4E0E009C087
:10090600143021F4EC89EF70EA3011F0E0E001C018
:10091600E1E019810881A5960895BA93AA9365978F
:100926001A93E0E0E98310E01830B8F4A2E01A9FC9
:10093600F001DE011196EA0FFB1FFA93EA93E0ED50
:10094600F0E0FA93EA93AA8DBB8DEE27A10FBE1FA6
:10095600EC910E9401091F5FE7CFDE0111960E940C
:100966009606188168960895BA93AA9361971A9382
:1009760010E0183008F52197AB89BC89EE27A10F46
:10098600BE1FEC91E883A881A03210F0AF3748F083
:10099600E12FF0E0DE011296AE0FBF1FEEE2EC9300
:1009A60008C0E12FF0E0DE011296EA0FFB1FA881D6
:1009B600A08321961F5FDDCFE0E0E987DE01119677
:1009C600B2D118810C945808A197E0E0EABBEBBBC2
:1009D600E0EBE7BBE0E0E8BBE4BBE5BBE1BBE2BBC9
:1009E600E3BFEFBDEEBDE5BDE9BFE5BFE4BFEAB9D4
:1009F600E0E8E8B9E0E0E0BFE6B9E2E5EDB9E0E05D
:100A0600EEB9BC9AC49AA0E1A9D16CD1A5EDB0E02B
:100A160099D1ACE2B1E00E94A70941DCE79781E2F7
:100A2600A1E1B0E0EEEAF0E00E94D4095BD1A1EECC
:100A3600B0E088D1A6E9B0E00E94A709E6E2EA9311
:100A4600DE01AE5BBF4FDCDCE03031F4A8ECB0E099
:100A56000E94A709E796E2CFDE01D79639DD1E2F61
:100A6600FE01F796FA93EA931A93ADB7BEB70F93C2
:100A7600EADD0F91EEAB103011F0E03051F432D1D7
:100A8600A0EFB0E05FD1A8E5B2E00E94A709E79623
:100A9600C5CFA02F37DEAF0125D1DA0127DE0E94B0
:100AA6000B09EEEFF0E0FA93EA93E02F0E940109BA
:100AB6000E9411090E941609A4EFB1E00E941B09C9
:100AC600143029F40E940B090E941F0923C00E94BA
:100AD6000B090E941F09F9D00E9416090E940B09F2
:100AE600EFE0F1E0FA93EA93EFAD0E944C09FE01C4
:100AF600EC5BFF4FE0810E944C09FE01E75BFF4F74
:100B0600E0810E944C098CE00E945A086096E0E061
:100B1600EA93A1E0DAD00E941609ACEBB2E00E949B
:100B2600A709E02FEC7FE83021F0E02FEC7FE831D9
:100B360009F40AC0D7D0ACE1B1E004D1A8EEB3E025
:100B46000E94A709E7966ACF173041F4EAADEAABEF
:100B5600EBADEBABECADECABEDAD07C0EFA9EAABA3
:100B6600E8ADEBABE9ADECABEAADEDABBBD0ACE2DF
:100B7600B1E0E8D00E94520939F4B4D0A7E3B1E05D
:100B8600E1D00E945A094ACFE9A9EA93DE0192967A
:100B96001BDEE03031F4A6D0A1E4B1E00E9460098A
:100BA6003DCFA0D0AAE4B1E0CDD0E9A9EA93DE0119
:100BB600529646DEE03031F495D0A8E5B1E00E94C9
:100BC60060092CCFE9A9EA93DE011296FDDDE0303B
:100BD60031F488D0A3E6B1E00E9460091FCFECDDB6
:100BE600E1E0E88330E03031A8F4E32FF0E0DE0105
:100BF6001196AE0FBF1F0C90E32FF0E0DE01519669
:100C0600AE0FBF1FEC91E01519F0E0E0E88302C0DB
:100C16003F5FE9CF67D0E881F0E0309719F0E0E771
:100C2600F1E002C0EBE7F1E0DF010E946509DE01B9
:100C360011960E946809A9E8B1E00E946509DE01E3
:100C4600119692DEA0EBB4E00E941B09A0E9B1E088
:100C56000E946509DE0119960E946809ACE9B1E0B7
:100C66000E946509DE0119967FDEA0EBB4E00E94C2
:100C7600A7090E94520931F0E9A9EA93DE0192968A
:100C8600DFDD9ADDE796CACEFFCFAA93E5B3EF7014
:100C9600AE2FE881E07FEA2BE5BB8DE08A95F1F780
:100CA600AA9A8DE08A95F1F7AA988DE08A95F1F7D0
:100CB60088C0AA93A881E9DFE881E295E883A88144
:100CC600E4DF85E88A95F1F77CC0AA93E881F0E035
:100CD600EA59FD4FE081A981AE0FEBDF59804880CC
:100CE60022960895A2E00E946D09ACE0E2DFA1E041
:100CF6000E946D09E0E04E2E5E2E0895AA93A8810B
:100D0600AA3011F0571448F0E0E0EA934394A42D7A
:100D1600DCDFA881AA3009F454C05394A89AA881AC
:100D2600C8DFA8984EC0BA93AA931A93A981BA812C
:100D3600ED91A983BA831E2FE03019F0A12FDEDFD3
:100D4600F5CF09C0BA93AA931A930E94F00819F036
:100D5600A12FD4DFFACF188123960895AA93E4B37E
:100D6600E06FE4BBA29AA09AA19AAA98A898A9981B
:100D76007880E881E058E0936802E881E054E093E7
:100D86006902A4E1B0E00E94A7090E9473090E94CB
:100D960073090E947309A0E278DF88EC90E001975E
:100DA600F1F7A8E286DFA4E084DFA5E882DFA6E00B
:100DB60080DF98DF06C0AA93E881EFB9779BFECF64
:100DC600EFB121960895BA93AA931A930A93AA812A
:100DD600BB8112960E94B909309759F1AA81BB814D
:100DE60014960E94B9098F01309761F00230E0E055
:100DF6001E0798F0F80131978F01AA81BB811496DE
:100E0600ED93FC93AA81BB811296ED91FD913196EB
:100E1600FE93EE933197AC81A083AA81BB810E9499
:100E2600B909FF232AF0ED91FD913196FE93EE93D9
:100E360006C0AA81BB81EFEFFFEFED93FC9319810A
:100E4600088125960895BA93AA9326970E94C60903
:100E560010E0AC85BD85E0E0F0E0ED93FC93EA8917
:100E6600FB893196EA8BFB8B3197E4912E2FE0308C
:100E760009F415C1E12FE03039F4253211F411E0FF
:100E860002C00E947B090AC1E130A9F4253219F497
:100E96000E947B0902C112E040E000E02D3211F40D
:100EA60001E0FCC02B3211F44BE2F8C0203211F401
:100EB60040E2F4C002C0E23039F450E013E02033DF
:100EC60011F40068EBC003C0E33009F0E7C020333B
:100ED60010F02A3308F007C0AAE05A9F502DE22FDF
:100EE600E0535E0FDBC0E22FE33649F40E9482092D
:100EF600E889F989A481AA930E948809CEC0E337BC
:100F060041F40E9482090E948E090E948E081E2FBB
:100F16000AC0E03761F40E9482090E948E090E948D
:100F26009A081E2F086002600F7730E034C0E4365E
:100F360011F0E93611F4046002C0E53731F4E6E950
:100F4600F0E0EE83FF8315E00CC0E83511F408608D
:100F560003C0E83709F0A1C0E0EAF0E0EE83FF83C2
:100F660014E002FF14C00E9482090E949809AB8512
:100F7600AA233AF4EA85FB850E94B509EA87FB872E
:100F86004DE2403011F01F5F01C00B7F04C00E948C
:100F960082090E94980900FD11C0151778F407FF11
:100FA60008C002FF04C00B7F242F115001C020E3AC
:100FB60001C020E20E947B095150EFCF312F01FF83
:100FC60017C03030A1F003FF06C0EE81FF812591E6
:100FD600EE83FF8305C0AE81BF812D91AE83BF83B3
:100FE6000E947B09503009F051503150EACF4BC076
:100FF60020E3EE81FF810E94BD09E887F987EE8133
:10100600FF813296EE83FF83E885F985AA85BB8545
:10101600AE17BF0750F02F5FA885B985EA85FB8517
:10102600EA1BFB0BEA87FB87EFCF2A3328F003FF87
:1010360002C0295F01C0295D04FD1AC0213320F4D6
:10104600A885B985119709F409C0531710F000FF58
:1010560001C013C020E207FF0BC020E3006102FFBE
:1010660007C00B7F4A930E948809503009F05150FF
:101076000E947B09503009F051503150A885B9853E
:10108600129708F0B5CF00FF08C0503031F051502C
:10109600E0E2EA930E948809F8CF10E0E0CEAC8542
:1010A600BD850E94B9090E94CD0964960895FF92F4
:1010B600F82E26970E94C8090E94A009309719F4B5
:1010C600EFEFFFEF23C0DE0116960E94B1098D01F6
:1010D6000E94A009EE83FF83E0E0E887E987DE014E
:1010E6001A960E94B1090E94B909FA93EA931A93D3
:1010F6000A93E6EEF6E0FA93EA93DE011A96A3DE89
:101106009F01AE81BF81E0E0EC93F9010E94CF0917
:101116002A96FF900895BA93AA93A991B991EE27BA
:10112600FF276D91662311F03196FBCF0895BA9390
:10113600AA93AA27BB27E991F9910590002011F0FF
:101146001196FBCFFD010895AA93E981EA93AA813E
:101156000C941B01EA93A0E00C940D01BA93AA9398
:101166001A93E1E0F7CFEAE0EA93A0E80C942E01A7
:10117600EE27A10FBE1FAC910C940D01EA93FE0160
:101186003596FA93EA930895F0E0EA0FFB1F0F01F4
:10119600E02FF0E00895DE011296AE0FBF1FEC912E
:1011A600D001EC930895EA93DE0115960E9435026C
:1011B600E0300895ED81AC81EA27AE81EA27AF8160
:1011C600EA271E2FE885E1170895EC83E3E9EA9301
:1011D600FE013296FA93EA930895E981FA813196EF
:1011E600E983FA833197E4911E2FE0300895EA935C
:1011F600DE015F960E946C01EC8D0895FF2766273D
:1012060077270E94C10984E00E945A08289608950B
:10121600FE01ED5BFF4FFA93EA930895E0E0EA934F
:10122600A1E00C946806DE01AD5BBF4F0C949606F8
:101236000E94A7090C947506E7E0F1E0FA93EA9399
:10124600EBADFF27662777270E94C109FE01E05C08
:10125600FF4FE081FF27662777270E94C109FE011D
:10126600EB5BFF4FE081FF27662777270E94C109C6
:10127600FE01E65BFF4FE081FF27662777270E9486
:10128600C10980E10E945A086496E0E0EA93A0E072
:101296000895FF27662777270E94C1090895E9A9BF
:1012A600EA93DE01D3960E94A403E0300895A4E8F1
:1012B600B3E00E94A709E79608950E94A5060E943A
:1012C600DF03F5CF0E94A506A9CF0E949004A0EBEC
:1012D600B4E0AECF0E945C06A3E0B0E00C94A70990
:1012E600A0E30E94480688EC90E00197F1F7089584
:1012F6002A93AD85BE85EF85F88909950895E88915
:10130600F9893497E88BF98B0895AD85BE85EF850D
:10131600F88909950895A889B98914960E94B9098A
:10132600EE83FF83AE81BF810895A889B98914969B
:101336000E94B909EA87FB870895DE011C960E9480
:10134600B1090E94B9090895109639F0A89580ED63
:1013560097E00197F1F71197C9F708950024AF0DAB
:10136600B01D0895F195E195F0400895ED91FC9139
:10137600119708950590F491E02D08957A936A9354
:10138600FA93EA9308955A934A933A932A931A93AF
:101396000A9308955D814C813B812A8119810881D8
:1013A6000895AC0FBD1F05900D928A95E1F708953B
:00000001FF
