:080000000C94A2000C94000016
:100008000C9400000C9400000C9400000C94000068
:100018000C9400000C9400000C9400000C94000058
:100028000C9400000C9400000C9400000C94000048
:100038000C9400000C9400000C9400000C94000038
:100048000C9400000C9400000C9400001027E803A6
:1000580064000A000100001000011000010000C641
:1000680037D532B7575CC2D87C4DD970C77310E604
:10007800D2AA5EA13E5A14AF3061C970DB2E642249
:1000880072B5BD65F4EC22BCD37235CDAA411FA769
:10009800F35314DE7E02D90FB55E251D297900EBD6
:1000A80066BA57BF2395D0E30D3D27895CDE9D3B9B
:1000B800A700215B8982513AEB020CA500497C8498
:1000C8004DB3CCD21B815D4876D5716121A9869646
:1000D8008338CF9D5B6DDC15BA3E7D953B2F52432F
:1000E8003532322053656C665465737400506C6504
:1000F80061736520776169742E2E2E005665723AF9
:100108003078253032580053656C66546573743AFC
:1001180020504153530053656C66546573743A20FC
:100128004641494C000080C0400060026600400023
:10013800A002A6000200E0022E010000F894EE27BB
:10014800ECBBF1E0F5BFE5BF8DE0A2E0BB27ED9386
:100158008A95E9F780E098E0A0E6ED930197E9F742
:10016800E0E3F1E085919591009761F0A591B59153
:1001780005901590BF01F00105900D920197E1F7E8
:10018800FB01F0CFEFE5EDBFE8E0EEBFC0E6D2E05F
:100198000C948501C4980895C49A0895AA93E88197
:1001A800EFB9779BFECFEFB10C949402AA93F2DFDC
:1001B800E981EE0FEE77AE2FF1DFA881EFDFECDFFC
:1001C8003EC1AA931A93E6DFE981EE0FEE77E06865
:1001D800AE2FE4DFA0E0E2DF1E2FDEDFE12F188183
:1001E8002EC1AA931A9310E0E9811E1778F4E12F23
:1001F800AA81BB81F0E0EA0FFB1FFF93EF93A9E010
:10020800E0DFAF91BF91EC931F5FEECF188124968A
:100218000895E1E0EA93AFE0C9DFA2E3B0E00E940D
:10022800A7040895BA93AA93EF9721970E94C80448
:10023800A7E3C7DF1E2FEDDFEAE0EA93A0E8B6DF09
:1002480030E0393128F4E9E00E9457043F5FF9CFE4
:10025800E1E0EA93A1E0AADFE6E3EA93A9E0A6DFFA
:10026800E9E00E945704E1E0EA93A3E09FDF30E071
:10027800383C58F4AAE0A5DF0E2F003431F0A1E095
:10028800B0E00E94A7043F5FF3CF003421F00E9442
:100298005B04E0E031C0FE013496FA93EA93A0E4EF
:1002A800A0DFE6E30E945704B4DF0E945B04113923
:1002B80081F430E0303458F40E946304E05AFD4F72
:1002C800E081EA1711F0E0E017C03F5FF3CFE1E00B
:1002D80013C0123981F430E0303458F40E946304BA
:1002E800E056FD4FE081EA1711F0E0E005C03F5FFE
:1002F800F3CFE1E001C0E0E00E94CF04EF9627963B
:100308000895619710E000E0E0E0EABBEBBBE0EBAA
:10031800E7BBE0E0E8BBE4BBE5BBE1BBE2BBE3BFB6
:10032800E2BFECBFEFBDEEBDEDBDECBDE7BDE6BD88
:10033800EBBDEABDE9BDE8BDE2BDE5BDE4BDE3BD99
:10034800E9BFE5BFE4BFEAB9E0E8E8B9E0E0E0BF4B
:10035800E6B9E3E5EDB9E0E0EEB9E6BFA0E1B4D077
:10036800BC9AC49A6ED0E0E0EA93A0E05DD0A6EE15
:10037800B0E097D0E0E0EA93A1E056D0A5EFB0E076
:1003880090D0A0E9B1E00E94A704ADB7BEB71F9313
:1003980049DF1F910E2F55D0FE01FA93EA93E4E04E
:1003A800F1E0FA93EA93E12FFF27662777270E9467
:1003B800C10484E00E940A042896E0E0EA93A0E0E1
:1003C80033D0DE015FD0E0E0EA93A1E02DD0E02F4A
:1003D800F0E0309719F0EFE0F1E002C0EEE1F1E073
:1003E800DF015FD0FFCFFFCFAA93E5B3EF70AE2F49
:1003F800E881E07FEA2BE5BB8DE08A95F1F7AA9AC0
:100408008DE08A95F1F7AA988DE08A95F1F788C072
:10041800AA93A881E9DFE881E295E883A881E4DF6F
:1004280085E88A95F1F77CC0AA93E881F0E0E0526C
:10043800FD4FE081A981AE0FEBDF598048802296FD
:100448000895A2E00E946D04ACE0E2DFA1E00E9402
:100458006D04E0E04E2E5E2E0895AA93A881AA307E
:1004680011F0571448F0E0E0EA934394A42DDCDF40
:10047800A881AA3009F454C05394A89AA881C8DF67
:10048800A8984EC0BA93AA931A93A981BA81ED91FC
:10049800A983BA831E2FE03019F0A12FDEDFF5CF34
:1004A80010C0BA93AA931A93E981FA813196E98325
:1004B800FA833197E4911E2FE03019F0A12FCDDF98
:1004C800F3CF188123960895AA93E4B3E06FE4BBB1
:1004D800A29AA09AA19AAA98A898A9987880E8813F
:1004E800E058E093E202E881E054E093E302A4E1FB
:1004F800B0E00E94A7040E9473040E9473040E9443
:100508007304A0E271DF88EC90E00197F1F7A8E2AC
:100518007FDFA4E07DDFA5E87BDFA6E079DF91DF60
:1005280021960895BA93AA931A930A93AA81BB8134
:1005380012960E94B904309759F1AA81BB8114968A
:100548000E94B9048F01309761F00230E0E01E0785
:1005580098F0F80131978F01AA81BB811496ED9329
:10056800FC93AA81BB811296ED91FD913196FE9381
:10057800EE933197AC81A083AA81BB810E94B90414
:10058800FF232AF0ED91FD913196FE93EE9306C07C
:10059800AA81BB81EFEFFFEFED93FC9319810881EE
:1005A80025960895BA93AA9326970E94C60410E048
:1005B800AC85BD85E0E0F0E0ED93FC93EA89FB892A
:1005C8003196EA8BFB8B3197E4912E2FE03009F4BA
:1005D80015C1E12FE03039F4253211F411E002C0E1
:1005E8000E947B040AC1E130A9F4253219F40E9463
:1005F8007B0402C112E040E000E02D3211F401E07A
:10060800FCC02B3211F44BE2F8C0203211F440E266
:10061800F4C002C0E23039F450E013E0203311F4A2
:100628000068EBC003C0E33009F0E7C0203310F0E6
:100638002A3308F007C0AAE05A9F502DE22FE05352
:100648005E0FDBC0E22FE33649F40E948204E8899A
:10065800F989A481AA930E948804CEC0E33741F4A3
:100668000E9482040E948E040E943E041E2F0AC02B
:10067800E03761F40E9482040E948E040E944A04BA
:100688001E2F086002600F7730E034C0E43611F0A6
:10069800E93611F4046002C0E53731F4E4E5F0E02E
:1006A800EE83FF8315E00CC0E83511F4086003C041
:1006B800E83709F0A1C0EEE5F0E0EE83FF8314E02F
:1006C80002FF14C00E9482040E949804AB85AA23EA
:1006D8003AF4EA85FB850E94B504EA87FB874DE278
:1006E800403011F01F5F01C00B7F04C00E948204DC
:1006F8000E94980400FD11C0151778F407FF08C080
:1007080002FF04C00B7F242F115001C020E301C059
:1007180020E20E947B045150EFCF312F01FF17C018
:100728003030A1F003FF06C0EE81FF812591EE83F2
:10073800FF8305C0AE81BF812D91AE83BF830E9428
:100748007B04503009F051503150EACF4BC020E3C0
:10075800EE81FF810E94BD04E887F987EE81FF8161
:100768003296EE83FF83E885F985AA85BB85AE17A7
:10077800BF0750F02F5FA885B985EA85FB85EA1B7E
:10078800FB0BEA87FB87EFCF2A3328F003FF02C071
:10079800295F01C0295D04FD1AC0213320F4A88512
:1007A800B985119709F409C0531710F000FF01C06B
:1007B80013C020E207FF0BC020E3006102FF07C05F
:1007C8000B7F4A930E948804503009F051500E94D0
:1007D8007B04503009F051503150A885B9851297E3
:1007E80008F0B5CF00FF08C0503031F05150E0E2BA
:1007F800EA930E948804F8CF10E0E0CEAC85BD856E
:100808000E94B9040E94CD0464960895FF92F82EC0
:1008180026970E94C8040E94A004309719F4EFEFAD
:10082800FFEF23C0DE0116960E94B1048D010E94DD
:10083800A004EE83FF83E0E0E887E987DE011A96EB
:100848000E94B1040E94B904FA93EA931A930A9396
:10085800E6E9F2E0FA93EA93DE011A96A3DE9F0135
:10086800AE81BF81E0E0EC93F9010E94CF042A96A3
:10087800FF900895BA93AA93A991B991EE27FF27FB
:100888006D91662311F03196FBCF0895BA93AA9320
:10089800AA27BB27E991F9910590002011F011963C
:1008A800FBCFFD010895EA93A0E00C94DA00DE0185
:1008B800AC5BBF4F0D90BC91A02D1C930895E32F06
:1008C800F0E0DE011496AE0FBF1FAC91E32FF0E00D
:1008D80008950E940C02A3E0B0E00C94A704A0E3E2
:1008E8000E94F80188EC90E00197F1F708952A93A7
:1008F800AD85BE85EF85F88909950895E889F98958
:100908003497E88BF98B0895AD85BE85EF85F88916
:1009180009950895A889B98914960E94B904EE83A7
:10092800FF83AE81BF810895A889B98914960E9472
:10093800B904EA87FB870895DE011C960E94B1047A
:100948000E94B9040895109639F0A89580ED97E0B3
:100958000197F1F71197C9F708950024AF0DB01D5D
:100968000895F195E195F0400895ED91FC91119766
:1009780008950590F491E02D08957A936A93FA9377
:10098800EA9308955A934A933A932A931A930A93A7
:1009980008955D814C813B812A81198108810895E0
:00000001FF
