:020000000C945E
:10000200FD000C9400000C9400000C9400000C9471
:1000120000000C9400000C9400000C9400000C945E
:1000220000000C9400000C9400000C9400000C944E
:1000320000000C9400000C9400000C9400000C943E
:1000420000000C9400000C9400000C9400000C942E
:1000520000004D494641524520436C617373696308
:1000620020314B004D494641524520436C61737328
:10007200696320344B00556C7472616C69676874F3
:100082002F4E54414700556E6B6E6F776E2F6F7413
:10009200686572004E544147323133004E54414735
:1000A200323135004E544147323136001027E803D1
:1000B20064000A000100001000011000010000C6E7
:1000C20037D532B7575CC2D87C4DD970C77310E6AA
:1000D200D2AA5EA13E5A14AF3061C970DB2E6422EF
:1000E20072B5BD65F4EC22BCD37235CDAA411FA70F
:1000F200F35314DE7E02D90FB55E251D297900EB7C
:1001020066BA57BF2395D0E30D3D27895CDE9D3B40
:10011200A700215B8982513AEB020CA500497C843D
:100122004DB3CCD21B815D4876D5716121A98696EB
:100132008338CF9D5B6DDC15BA3E7D953B2F7C2FBE
:100142002D5C52433532322053656C6654657374AC
:1001520000506C6561736520776169742E2E2E00E4
:100162005665723A3078253032580053656C6654C1
:100172006573743A204641494C0053656C66546578
:1001820073743A2050415353005549443A25303252
:1001920058253032582530325825303258005549CA
:1001A2004420636F6E742E3A0053656C656374204D
:1001B2006661696C656400536561726368696E6744
:1001C2002063617264004E4F20434152442020203C
:1001D20020202020000080C040006F02C0004000AC
:1001E200AF0200010F0060027C010400F102400135
:1001F2000200F702D8010000F894EE27ECBBF1E010
:10020200FBBFEBBFE5BF8DE0A2E0BB27ED938A9574
:10021200E9F780E098E0A0E6ED930197E9F7EAEDCF
:10022200F1E085919591009761F0A591B5910590C6
:100232001590BF01F00105900D920197E1F7FB01C6
:10024200F0CFEFE5EDBFE8E0EEBFC0E6D2E00C9400
:100252008C04C4980895C49A0895AA93FADFE98198
:10026200EE0FEE77AE2F0E946E06A8810E946E06F8
:10027200F2DF0C94FC05AA931A93EBDFE981EE0FEF
:10028200EE77E068AE2F0E946E06A0E00E946E0636
:100292001E2FE1DFE12F18810C94FC050E94370824
:1002A200A981EA2BAE2FD9DF0C94FC050E943708F6
:1002B200AE2FE981E095EA23AE2FCFDF0C94FC0547
:1002C200E1E0EA93AFE0C9DFA2E3B0E00E94E40814
:1002D2000895A4E1D0DFE37021F4E4E1EA93A3E01E
:1002E200DDDF0895EDDFEAE2EA93ADE8B6DFEBE2A7
:1002F200EA93AEE3B2DFEDE2EA93AEE1AEDFECE227
:100302000E943D08E5E1EA93A0E4A7DFE1E1EA9378
:10031200ADE3A3DFDEDF0895BA93AA93EF972197A7
:100322000E940509A7E3A7DF1E2FCADFEAE0EA93CE
:10033200A0E893DF00E0093128F4E9E00E943D08DB
:100342000F5FF9CFE1E0EA93A1E087DFE6E3EA930A
:10035200A9E083DFE9E00E943D08E1E0EA93A3E03F
:100362007CDF00E0083C58F4AAE085DF3E2F303401
:1003720031F0A1E0B0E00E94E4080F5FF3CF303427
:1003820019F00E94410840C000E0003468F40E9465
:100392004908EA0FFB1FFF93EF93A9E06CDFAF91CF
:1003A200BF91EC930F5FF1CFE6E30E943D0888DF37
:1003B2000E944108113999F400E0003470F40E945F
:1003C2004908AE0FBF1FAC91E02FF0E0E159FD4F9D
:1003D200E081EA17C9F40F5FF0CFE1E016C01239ED
:1003E20099F400E0003470F40E944908AE0FBF1F78
:1003F200AC91E02FF0E0E155FD4FE081EA1721F4E6
:100402000F5FF0CFE1E001C0E0E00E940C09EF963F
:1004120027960895BA93AA930E940509E2E0EA9307
:10042200A7EF1BDFE4E0EA93A0E840DFEAE00E94E6
:100432004E08E1E00E943D0810E0E8851E1740F4F6
:10044200E9E0EA93AA85BB850E9452081F5FF5CFB7
:10045200E1E0EA93ACE001DFEDE00E944E0818EC27
:10046200A4E009DF0E2F115011F0E07309F001C072
:10047200F7CFEDE0EA93A0E819DF103021F4E0E0D5
:100482000E940C09D9C1A6E0F6DEEB7121F0E0E092
:100492000E940C09D1C1AAE0EEDE0E2FACE0EBDE29
:1004A200E7703E2F303039F0E02FE150EE0FEE0FC3
:1004B200EE0FE30F04C0E02FEE0FEE0FEE0FAC8154
:1004C200BD81EC9310E0101778F4E12FAE81BF816B
:1004D200F0E0EA0FFB1FFF93EF93A9E0CCDEAF91B0
:1004E200BF91EC931F5FEFCFE1E00E940C09A4C122
:1004F200BA93AA9322971A930A931E8100E0EDE021
:10050200EA93A7E0AADEEDB7FEB7FA93EA931F9348
:10051200E1E0EA93FE013596FA93EA93ADB7BEB7EE
:100522000F9378DF0F911F91E03011F4E0E011C0DA
:10053200EDE00E943D08003111F0E0E00AC0EA81DE
:10054200AC81BD81EC93EB81AC81BD811196EC93C2
:10055200E1E01981088127960895BA93AA932C970E
:100562001A930A9310E0E889EC87E0E2ED87EDE068
:100572000E943D08FE013C96FA93EA93E2E0EA9378
:10058200FE013596FA93EA93ADB7BEB71F9342DFE9
:100592001F91E03011F4E0E015C0183211F0E0E0F4
:1005A20011C000E0053068F4E02FAE85BF850E94DF
:1005B2005808E02FF0E0DE0112960E945D080F5FFE
:1005C200F1CFE1E01981088161960895BA93AA9367
:1005D2001A93E1E00E943D08EAE00E944E0810E012
:1005E200EB811E1740F4E9E0EA93AD81BE810E94DF
:1005F20052081F5FF5CFE1E0EA93A3E02EDE10E0A0
:100602001F3F30F4A5E037DEE47011F41F5FF8CF2E
:10061200A2E231DEA981BA81EC93A1E22CDEA981AA
:10062200BA811196EC93188126960895BA93AA93EB
:1006320025970E94050930E0E3E90E94630821F44E
:10064200E0E00E940C09F8C0AC81A83899F5ED8170
:10065200A985BA85EC93EE81A985BA851196EC93AA
:10066200EF81A985BA851296EC93E5E90E946308A9
:1006720021F4E0E00E940C09DFC00E946A0821F028
:10068200E0E00E940C09D8C0EC81A985BA851396D6
:10069200EC93ED81A985BA851496EC93EE81A98538
:1006A200BA851596EC93EF81A985BA851696EC93D7
:1006B20037E018C00E946A0821F0E0E00E940C09AD
:1006C200BBC010E0143068F4E12FA985BA850E94FE
:1006D2005808E12FF0E0DE0114960E945D081F5FCA
:1006E200F1CF34E0E32F0E940C09A6C0BA93AA937B
:1006F2002E971A9310E0EDE00E943D08EC89EE83FC
:10070200E0E7EF83AA89BB89EC91E887EA89FB8954
:10071200E181E987EA89FB89E281EA87EA89FB8943
:10072200E381EB87E989EC87FE013696FA93EA9337
:10073200E7E0EA93DE01179649DFEC81ED87ED8170
:10074200EE87FE013696FA93EA93E9E0EA93FE0118
:100752003496FA93EA93ADB7BEB71F935BDE1F914F
:10076200E03011F4E0E009C0183111F0E0E005C01A
:10077200E981AF85B889EC93E1E018816596089527
:10078200BA93AA9324971A930A93A885A430A9F43A
:10079200A985BA85EC91EA83E985FA85E181EB8343
:1007A200E985FA85E281EC83E985FA85E3810E9495
:1007B2007508AA85BB859ADF3DC0A885A730C9F513
:1007C200E8E8EA83A985BA85EC91EB83E985FA85A5
:1007D200E181EC83E985FA85E2810E947508ADB773
:1007E200BEB70F9383DF0F91E03019F1E985FA85E7
:1007F200E381EA83E985FA85E481EB83E985FA8579
:10080200E581EC83E985FA85E681ED83EB81AA81B6
:10081200EA27AC81EA27AD81EA271E2FE5E9EA93B0
:10082200FE013396FA93EA931A93AA85BB855EDF9B
:1008320001C0E0E0198108812B960895BA93AA932A
:100842002C970E94050910E600E0EDB7FEB7FA9377
:10085200EA931F93E1E0EA93FE013796FA93EA9353
:10086200ADB7BEB70F93D6DD0F911F91E03011F4F3
:10087200E0E015C0003410F4E0E011C030E03830A0
:1008820068F4E32FA889B9890E945808E32FF0E0A1
:10089200DE0114960E945D083F5FF1CFE1E00E9405
:1008A2000C0962960895AA93A881A83011F0A8387D
:1008B20021F4E4E5F0E00C947406A881A83111F06B
:1008C200A83921F4E6E6F0E00C947406E881E03001
:1008D20021F4E8E7F0E00C947406E8E8F0E00C9408
:1008E2007406AA93A881AF3021F4E6E9F0E00C94F3
:1008F2007406A881A13121F4EEE9F0E00C947406AB
:10090200A881A33121F4E6EAF0E00C947406E8E74A
:10091200F0E00C947406659710E000E0E0E0EABBBA
:10092200EBBBE0EBE7BBE0E0E8BBE4BBE5BBE1BB74
:10093200E2BBE3BFE2BFECBFEFBDEEBDEDBDECBD80
:10094200E7BDE6BDEBBDEABDE9BDE8BDE2BDE5BD83
:10095200E4BDE3BDE9BFE5BFE4BFEAB9E0E8E8B959
:10096200E0E0E0BFE6B9E2E5EDB9E0E0EEB9E6BF0E
:10097200BC9AC49AA0E184D10E948608A4E4B1E0A2
:100982006CD10E948D08A3E5B1E067D1A0E9B1E086
:100992000E94E408ADB7BEB71F93BEDC1F910E2FB5
:1009A2002CD1FE01FA93EA93E2E6F1E0FA93EA939C
:1009B200E12F0E94920884E00E94EA072896E0E074
:1009C200EA93A0E00DD1DE0139D1003031F40E946A
:1009D2008D08ADE6B1E041D1FFCF0E948D08A0E6BF
:1009E200B2E02CD1A8E5B2E00E94E4087BDC689773
:1009F200E0E0EA87EB870E94980809F485C0DE01EF
:100A02001C9614DEEB87E03009F47DC0FE013C96B3
:100A1200FA93EA93ED85EA93DE011D96B1DEE030AA
:100A220009F469C0AA853FDFE883F983AA85A0306B
:100A320029F4DE01129602DFE03009F408C02297A1
:100A4200AA854FDFE883F983EA83FB8322960E941B
:100A52008608A881B98101D1AB85A43081F40E94B6
:100A6200A008ED890E949208EA8D0E949208EF8DFB
:100A72000E94920880E10E94EA07649632C00E94B6
:100A8200A008ED890E949208EA8D0E949208EF8DDB
:100A92000E94920880E10E94EA0764960E948D08F3
:100AA200DE015896CBD0A4E8B3E00E94E4080E948D
:100AB2008608A0EAB1E0D1D0FE017896FA93EA93D3
:100AC200E3E9F1E0FA93EA93EC890E949208E98D56
:100AD2000E949208EE8D0E9492088CE00E94EA0722
:100AE2006096E0E0EA93A1E07BD0DE015896A6D0C2
:100AF200A0EBB4E006C081D0ABEAB1E0AED0A8E58D
:100B0200B2E00E94E40845C0E091EF02E03041F417
:100B12000E948608A9EBB1E0A0D0E1E0E093EF02E9
:100B2200EFE0EA93A0E05CD0A091F002AF5FA09367
:100B3200F002A150E3E0EA23F0E0EF50FD4FA08184
:100B420068D00E94980829F0E0E0E093EF026896EE
:100B52004ECFA6E9B0E00E94E408E091F502F091E0
:100B6200F602EA56FF4FE093F502F093F602A091E7
:100B7200F502B091F602AC3DE5E0BE0750F00E94EE
:100B82008D08A8ECB1E069D0E0E0E093F502E093D3
:100B9200F602A6E9B0E00E94E408689628CFFFCFEB
:100BA200AA93E5B3EF70AE2FE881E07FEA2BE5BBB5
:100BB2008DE08A95F1F7AA9A8DE08A95F1F7AA98C5
:100BC2008DE08A95F1F78FC0AA93A881E9DFE881C9
:100BD200E295E883A881E4DF85E88A95F1F783C08E
:100BE200AA93E881F0E0E950FD4FE081A981AE0FC0
:100BF200EBDF5980488022960895A2E00E94AA085D
:100C0200ACE0E2DFA1E00E94AA08E0E04E2E5E2EF8
:100C12000895AA93A881AA3011F0571448F0E0E091
:100C2200EA934394A42DDCDFA881AA3009F45BC0C7
:100C32005394A89AA881C8DFA89855C0BA93AA93DA
:100C42001A93A981BA81ED91A983BA831E2FE0304C
:100C520019F0A12FDEDFF5CF10C0BA93AA931A9331
:100C6200E981FA813196E983FA833197E4911E2F63
:100C7200E03019F0A12FCDDFF3CF1881239608952C
:100C8200AA93E4B3E06FE4BBA29AA09AA19AAA98AD
:100C9200A898A9987880E881E058E093F902E88161
:100CA200E054E093FA02A4E1B0E00E94E4080E945A
:100CB200B0080E94B0080E94B008A0E271DF88EC80
:100CC20090E00197F1F7A8E27FDFA4E07DDFA5E8DD
:100CD2007BDFA6E079DF91DF06C0AA93E881EFB956
:100CE200779BFECFEFB121960895BA93AA931A93F8
:100CF2000A93AA81BB8112960E94F608309759F195
:100D0200AA81BB8114960E94F6088F01309761F088
:100D12000230E0E01E0798F0F80131978F01AA81B6
:100D2200BB811496ED93FC93AA81BB811296ED913F
:100D3200FD913196FE93EE933197AC81A083AA8107
:100D4200BB810E94F608FF232AF0ED91FD913196B6
:100D5200FE93EE9306C0AA81BB81EFEFFFEFED9306
:100D6200FC931981088125960895BA93AA93269730
:100D72000E94030910E0AC85BD85E0E0F0E0ED9350
:100D8200FC93EA89FB893196EA8BFB8B3197E491DC
:100D92002E2FE03009F415C1E12FE03039F425326D
:100DA20011F411E002C00E94B8080AC1E130A9F4AE
:100DB200253219F40E94B80802C112E040E000E0B6
:100DC2002D3211F401E0FCC02B3211F44BE2F8C0D9
:100DD200203211F440E2F4C002C0E23039F450E0B3
:100DE20013E0203311F40068EBC003C0E33009F0D4
:100DF200E7C0203310F02A3308F007C0AAE05A9F58
:100E0200502DE22FE0535E0FDBC0E22FE33649F4B0
:100E12000E94BF08E889F989A481AA930E94C508A3
:100E2200CEC0E33741F40E94BF080E94CB080E9463
:100E32001E081E2F0AC0E03761F40E94BF080E94FC
:100E4200CB080E942A081E2F086002600F7730E04C
:100E520034C0E43611F0E93611F4046002C0E5371B
:100E620031F4EEEAF0E0EE83FF8315E00CC0E835E2
:100E720011F4086003C0E83709F0A1C0E8EBF0E024
:100E8200EE83FF8314E002FF14C00E94BF080E9499
:100E9200D508AB85AA233AF4EA85FB850E94F208BD
:100EA200EA87FB874DE2403011F01F5F01C00B7FE4
:100EB20004C00E94BF080E94D50800FD11C015178A
:100EC20078F407FF08C002FF04C00B7F242F1150E3
:100ED20001C020E301C020E20E94B8085150EFCFC8
:100EE200312F01FF17C03030A1F003FF06C0EE81A1
:100EF200FF812591EE83FF8305C0AE81BF812D91D5
:100F0200AE83BF830E94B808503009F0515031506F
:100F1200EACF4BC020E3EE81FF810E94FA08E88706
:100F2200F987EE81FF813296EE83FF83E885F985AA
:100F3200AA85BB85AE17BF0750F02F5FA885B9857C
:100F4200EA85FB85EA1BFB0BEA87FB87EFCF2A3397
:100F520028F003FF02C0295F01C0295D04FD1AC009
:100F6200213320F4A885B985119709F409C05317D4
:100F720010F000FF01C013C020E207FF0BC020E306
:100F8200006102FF07C00B7F4A930E94C5085030E0
:100F920009F051500E94B808503009F051503150B8
:100FA200A885B985129708F0B5CF00FF08C0503068
:100FB20031F05150E0E2EA930E94C508F8CF10E008
:100FC200E0CEAC85BD850E94F6080E940A096496AF
:100FD2000895FF92F82E26970E9405090E94DD08C7
:100FE200309719F4EFEFFFEF23C0DE0116960E944F
:100FF200EE088D010E94DD08EE83FF83E0E0E887C2
:10100200E987DE011A960E94EE080E94F608FA931A
:10101200EA931A930A93E6E7F6E0FA93EA93DE017B
:101022001A96A3DE9F01AE81BF81E0E0EC93F90145
:101032000E940C092A96FF900895BA93AA93A99147
:10104200B991EE27FF276D91662311F03196FBCF00
:101052000895BA93AA93AA27BB27E991F99105901B
:10106200002011F01196FBCFFD010895AA93E981AA
:10107200EA93AA810C943C01EA93A0E00C942E011D
:10108200DE01AC5BBF4F0D90BC91A02D1C93089567
:10109200E02FF0E0DE0114960895EA93A0E80C94A4
:1010A2004F01EE27A10FBE1FAC910C942E01F0E070
:1010B200EA0FFB1F0F010895AE0FBF1FEC91D00185
:1010C200EC930895EA93DE0115960E94AE02E03099
:1010D2000895ED81AC81EA27AE81EA27AF81EA2744
:1010E2000E2FE885E0170895ED83EB81AA81EA27A8
:1010F200AC81EA27AD81EA271E2FE3E9EA93FE01DC
:101102003396FA93EA931A9308950E94FE05E0E05B
:10111200EA93A0E00C94F105E0E0EA93A1E00C94DC
:10112200F105FF27662777270E94FE080895E6E269
:10113200EA93DE0157960E947902E0300895FE019B
:101142007896FA93EA93EBE8F1E0FA93EA93E88966
:10115200E8CF0E94E505A3E0B0E00C94E408A0E328
:101162000E94D10588EC90E00197F1F708952A9347
:10117200AD85BE85EF85F88909950895E889F989D5
:101182003497E88BF98B0895AD85BE85EF85F88994
:1011920009950895A889B98914960E94F608EE83E4
:1011A200FF83AE81BF810895A889B98914960E94F0
:1011B200F608EA87FB870895DE011C960E94EE0876
:1011C2000E94F6080895109639F0A89580ED97E0F0
:1011D2000197F1F71197C9F708950024AF0DB01DDB
:1011E2000895F195E195F0400895ED91FC911197E4
:1011F20008950590F491E02D08957A936A93FA93F5
:10120200EA9308955A934A933A932A931A930A9324
:1012120008955D814C813B812A811981088108955D
:00000001FF
