:040000000C945B0001
:100004000C9400000C9400000C9400000C9400006C
:100014000C9400000C9400000C9400000C9400005C
:100024000C9400000C9400000C9400000C9400004C
:100034000C9400000C9400000C9400000C9400003C
:100044000C9400000C9400000C9400000C9400002C
:10005400546573742070696E3A200050696E20569E
:100064006F6C7461676520546573740053434B204F
:100074002850423729004D4F5349202850423529F2
:100084000053532028504234290080C00B006002E2
:10009400540011006B025F000A007C0270000B0028
:1000A40086027A0009009102850002009A028E00FD
:1000B4000000F894EE27ECBBF1E0FBBFEBBFE5BF1B
:1000C4008DE0A2E0BB27ED938A95E9F780E098E004
:1000D400A0E6ED930197E9F7E0E9F0E085919591C9
:1000E400009761F0A591B59105901590BF01F001BD
:1000F40005900D920197E1F7FB01F0CFEFE5EDBF1D
:10010400E8E0EEBFC0E6D2E00C94A300BA93AA9351
:1001140062D0A0E6B2E07ED0A881B9817BD018B2CB
:10012400EA81A1E00E946201E129E8BBAFD018B2E4
:10013400EA81A1E00E946201E095E121E8BBA6D03A
:1001440078C0E0E0EDB9A0E176D045D0ABE6B2E00E
:1001540061D09CD0E7B3E06BE7BBE7E0EA93ACE7A0
:10016400B2E0D4DFE5E0EA93A6E8B2E0CFDFE4E072
:10017400EA93A1E9B2E0CADFF0CFFFCFAA93E5B3D7
:10018400EF70AE2FE881E07FEA2BE5BB8DE08A9526
:10019400F1F7AA9A8DE08A95F1F7AA988DE08A95ED
:1001A400F1F772C0AA93A881E9DFE881E295E883B8
:1001B400A881E4DF85E88A95F1F766C0AA93E8810F
:1001C400F0E0E656FD4FE081A981AE0FEBDF5980E8
:1001D400488022960895A2E05DD0ACE0E3DFA1E080
:1001E40059D0E0E04E2E5E2E0895AA93A881AA303D
:1001F40011F0571448F0E0E0EA934394A42DDEDFB5
:10020400A881AA3009F440C05394A89AA881CADFEF
:10021400A8983AC0BA93AA931A93A981BA81ED9186
:10022400A983BA831E2FE03019F0A12FDEDFF5CFAA
:10023400188123960895AA93E4B3E06FE4BBA29ACD
:10024400A09AA19AAA98A898A9987880E881E058D9
:10025400E0939C02E881E054E0939D02A4E1B0E0C5
:100264000E9458011CD01BD01AD0A0E287DF88EC72
:1002740090E00197F1F7A8E295DFA4E093DFA5E809
:1002840091DFA6E08FDFA7DF21960895A0EDB7E008
:100294000C94580187DFA3E0B0E00C945801A0E36C
:1002A4006DDF88EC90E00197F1F70895109639F02E
:1002B400A89580ED97E00197F1F71197C9F7089594
:1002C400EE230E2EEA2F19F0EE0F0A94E9F70895A3
:00000001FF
