:040000000C9430002C
:100004000C9400000C9400000C945D000C9400000F
:100014000C9400000C9400000C9400000C9400005C
:100024000C9400000C9400000C9400000C9400004C
:100034000C9400000C9400000C9400000C9400003C
:100044000C9400000C9400000C9400000C9400002C
:10005400000000000400040054000000F894EE279F
:10006400ECBBF1E0FBBFEBBFE5BF8DE0A2E0BB273B
:10007400ED938A95E9F780E098E0A0E6ED93019787
:10008400E9F7E8E5F0E085919591009761F0A59195
:10009400B59105901590BF01F00105900D9201975F
:1000A400E1F7FB01F0CFEFE5EDBFE8E0EEBFC0E61E
:1000B400D2E00C9487000A92EA93FA93EFB7EA939A
:1000C400042C052819F4E1E0F0E03F01F201319637
:1000D4002F01E2E0F0E0E415F50511F44424552481
:1000E400E991EFBFF991E99109901895AA93E881F4
:1000F400E064E7B98BE18A95F1F7369A349BFECF39
:10010400349AE4B1F5B121960895E0E0EABBEBBB83
:10011400E3E0E7BBE0E0E8BBE4BBE5BBE1BBE2BB9B
:10012400E3BFE2BFECBFEFBDEEBDEDBDECBDE7BD8F
:10013400E6BDEBBDEABDE9BDE8BDE2BDE5BDE4BD9C
:10014400E3BDE9BFEBB7E062EBBFE0E0E5BFE4BFCE
:10015400E0E2EABFE0E0EAB9E0E8E8B9E0E4E7B900
:10016400E6E8E6B9E0E0E0BFEDB9E6BF7894E1E0A7
:10017400F0E0E415F50531F52297A0E0B7DFE88358
:10018400F983C09AE1E0F0E0E615F70541F4C19A7D
:10019400AAE0B0E00E94E800C19866247724A4E6AF
:1001A400B0E00E94E800A881B981A53FE1E0BE0764
:1001B40010F0C19A01C0C198A5E0B0E00E94E80027
:1001C400229602C0C198C098D2CFFFCF109639F0C2
:1001D400A89580ED97E00197F1F71197C9F7089575
:00000001FF
