:0A0000000C942A000C9400000C94EC
:10000A0000000C9400000C9400000C9400000C9466
:10001A0000000C9400000C9400000C9400000C9456
:10002A0000000C9400000C9400000C9400000C9446
:10003A0000000C9400000C9400000C9400000C9436
:10004A0000000C9400000C940000F894EE27ECBB1E
:10005A00F1E0FBBFEBBFE5BF8DE0A2E0BB27ED936C
:10006A008A95E9F780E098E0A0E6ED930197E9F731
:10007A00EFE5EDBFE8E0EEBFC0E6D2E00C94540035
:10008A00AA93E881E064E7B98BE18A95F1F7369A99
:10009A00349BFECF349AE4B1F5B121960895E0E09D
:1000AA00EABBEBBBE2E0E7BBE0E0E8BBE4BBE5BBF5
:1000BA00E1BBE2BBE3BFE2BFECBFEFBDEEBDEDBD0E
:1000CA00ECBDE7BDE6BDEBBDEABDE9BDE8BDE2BDFD
:1000DA00E5BDE4BDE3BDE9BFE5BFE4BFEAB9E0E8D9
:1000EA00E8B9E0E4E7B9E6E8E6B9E0E0E0BFEDB98F
:1000FA00E6BF2297A0E0C4DFE883F983A881B9812B
:10010A00A53FE1E0BE0710F0C19A01C0C198A5E081
:10011A00B0E00E9493002296ECCFFFCF109639F000
:10012A00A89580ED97E00197F1F71197C9F708951F
:00000001FF
