:020000000C945E
:10000200CC000C9400000C9400000C9400000C94A2
:1000120000000C9400000C9400000C9400000C945E
:1000220000000C9400000C9400000C9400000C944E
:1000320000000C9400000C9400000C9400000C943E
:1000420000000C9400000C9400000C9400000C942E
:1000520000004D494641524520436C617373696308
:1000620020314B004D494641524520436C61737328
:10007200696320344B00556C7472616C69676874F3
:100082002F4E54414700556E6B6E6F776E2F6F7413
:10009200686572001027E80364000A00010000107E
:1000A200000110000100FFFFFFFFFFFFFFFFFFFF46
:1000B200FFFF524335323220526561647900536347
:1000C200616E206120636172642E2E2E0053656C76
:1000D200656374206661696C65640053414B3A251F
:1000E200303258005549443A25303258253032587A
:1000F200253032582530325800417574682D5265CA
:100102006164204641494C00526561642045727227
:100112006F720042343A0052652D73656C656374E8
:10012200204661696C004175746820547261696C83
:100132006572204661696C00547261696C65722057
:100142005265616445727200524F3A00594553201C
:10015200004E4F202000433A256425642564004167
:1001620043433A2530325825303258253032580030
:10017200524F3A4E2F41202854797065322900009F
:1001820080C006006002A80006006602AE000200FF
:100192006C0282010000F894EE27ECBBF1E0FBBF99
:1001A200EBBFE5BF8DE0A2E0BB27ED938A95E9F7AF
:1001B20080E098E0A0E6ED930197E9F7E4E8F1E04A
:1001C20085919591009761F0A591B5910590159053
:1001D200BF01F00105900D920197E1F7FB01F0CF0D
:1001E200EFE5EDBFE8E0EEBFC0E6D2E00C948C0490
:1001F200C4980895C49A0895AA93FADFE981EE0F8C
:10020200EE77AE2F0E94EC06A8810E94EC06F2DF88
:100212000C948106AA931A93EBDFE981EE0FEE7735
:10022200E068AE2F0E94EC06A0E00E94EC061E2FB2
:10023200E1DFE12F18810C9481060E94B508A981A3
:10024200EA2BAE2FD9DF0C9481060E94B508AE2F9F
:10025200E981E095EA23AE2FCFDF0C948106E1E03D
:10026200EA93AFE0C9DFA2E3B0E00E9484090895F7
:10027200A4E1D0DFE37021F4E4E1EA93A3E0DDDF5F
:100282000895EDDFEAE2EA93ADE8B6DFEBE2EA9346
:10029200AEE3B2DFEDE2EA93AEE1AEDFECE20E9462
:1002A200BB08E5E1EA93A0E4A7DFE1E1EA93ADE36D
:1002B200A3DFDEDF08950E94BF080E94C40810E099
:1002C200EB811E1740F4E9E0EA93AD81BE810E9402
:1002D200C9081F5FF5CFE1E0EA93A3E08DDF10E0EC
:1002E2001F3F30F4A5E096DFE47011F41F5FF8CFF2
:1002F200A2E290DFA981BA81EC93A1E28BDFA9810E
:10030200BA811196EC93188126960895BA93AA930E
:100312000E94AD09E2E0EA93A7EF6EDFE4E0EA9320
:10032200A0E893DF0E94C408E1E00E94BB0810E04D
:10033200E8851E1740F4E9E0EA93AA85BB850E948E
:10034200C9081F5FF5CFE1E0EA93ACE055DFEDE0CD
:10035200EA93A0E872DF18ECA4E05CDF0E2F1150E4
:1003620011F0E07309F001C0F7CFEDE0EA93A0E8E5
:100372006CDF103011F4E0E04FC1A6E04BDFEB710F
:1003820011F0E0E049C1AAE045DF0E2FACE042DF08
:10039200E7703E2FEC81FD81309781F0303039F0EB
:1003A200E02FE150EE0FEE0FEE0FE30F04C0E02F4F
:1003B200EE0FEE0FEE0FAC81BD81EC9310E0101743
:1003C20078F4E12FAE81BF81F0E0EA0FFB1FFF93CB
:1003D200EF93A9E01FDFAF91BF91EC931F5FEFCFC7
:1003E200E1E01AC1BA93AA9324971A930A93188543
:1003F20000E0EDE0EA93A7E0FFDEEDB7FEB7FA9387
:10040200EA931F93E1E00E94CF08ADB7BEB70F9306
:100412007DDF0F911F91E03011F4E0E011C0EDE0BB
:100422000E94BB08003111F0E0E00AC0EA81AE810F
:10043200BF81EC93EB81AE81BF811196EC93E1E039
:100442001981088129960895BA93AA932C971A9331
:100452000A9310E0E889EC87E0E2ED87EDE00E9484
:10046200BB08EEE0EA93A0E8C7DEFE013C96FA93F1
:10047200EA93E2E00E94CF08ADB7BEB71F9346DF12
:100482001F91E03011F4E0E011C0183211F0E0E009
:100492000DC000E0053048F4E02FAE85BF850E9414
:1004A200D5080E94DC080F5FF5CFE1E019810881D1
:1004B20061960895BA93AA931A93A981BA81AC91CD
:1004C200E981FA81E181AE27E981FA81E281AE27F1
:1004D200E981FA81E381EA271E2F0C94BC06BA93C4
:1004E200AA932F971A930A9310E0EDE00E94BB089B
:1004F200AB89BC89DFDF0E2FED89E887E0E7E9876A
:10050200AB89BC89EC91EA87EB89FC89E181EB87B5
:10051200EB89FC89E281EC87EB89FC89E381ED8739
:10052200FE013E9600830E94E408E7E00E94E9088B
:10053200EF87EF81E88B0E94E408E9E00E94CF0890
:10054200ADB7BEB71F93E2DE1F91E03011F4E0E0D9
:1005520009C0183111F0E0E005C0EA81A989BA8921
:10056200EC93E1E01981088166960895BA93AA9303
:1005720025970E94AD0930E0E3E90E94F00811F4EA
:10058200E0E04AC0AC81A83879F5ED81A985BA8549
:10059200EC93EE81A985BA851196EC93EF81A9853A
:1005A200BA851296EC93E5E90E94F00811F4E0E0B6
:1005B20033C00E94F70811F0E0E02EC0EC81A9855B
:1005C200BA851396EC93ED81A985BA851496EC93BE
:1005D200EE81A985BA851596EC93EF81A985BA8536
:1005E2001696EC9337E017C00E94F70811F0E0E08E
:1005F20013C000E0043070F4E02FA985BA850E9490
:10060200D508DE011496AE0FBF1FEC91D001EC931A
:100612000F5FF0CF34E0E32F0E94B4092B960895C8
:10062200BA93AA9324971A93AF81A430A9F4A88508
:10063200B985EC91E983E885F985E181EA83E8856A
:10064200F985E281EB83E885F985E3810E9402095D
:10065200A885B98544DF34C0AF81A73081F5E8E8C9
:10066200E983A885B985EC91EA83E885F985E1817A
:10067200EB83E885F985E2810E940209ADB7BEB736
:100682001F932DDF1F91E030D1F0E885F985E381DA
:10069200E983E885F985E481EA83E885F985E581DE
:1006A200EB83E885F985E681EC83E5E9EA93FE01CF
:1006B2003296FA93EA93A885B98511DF01C0E0E08A
:1006C20018812A9608952A971A930A9310E000E057
:1006D200E0E5E887E0E0E9870E94E408E2E00E94C2
:1006E200E908EA87EF81EB870E94E408E4E00E94D0
:1006F200CF08ADB7BEB71F9309DE1F910E2FE1E001
:10070200198108812C960895BA93AA931A930E948C
:100712000A0921F0A12F0E948F06F9CF0C94BC0682
:10072200AA931A93E981EC7F1E2F183029F4E4E58D
:10073200F0E018810C948106183129F4E6E6F0E025
:1007420018810C948106103029F4E8E7F0E0188152
:100752000C948106E8E8F0E018810C9481060E946E
:10076200BF080E94C408E9E0EA93AF8145DDE9E0F1
:10077200EA93AE8141DD10E0163040F4E9E0EA93FD
:10078200AA81BB810E94C9081F5FF6CF10E0143016
:1007920040F4E9E0EA93AC81BD810E94C9081F5F81
:1007A200F6CFE1E0EA93AEE027DD10E0183C68F412
:1007B200A8E030DDE87019F0E1E01881AAC0A1E0FC
:1007C200B0E00E9484091F5FF1CFE0E01881A1C070
:1007D200E8E0EA93A8E039DDE1E00E94BB08089571
:1007E200BA93AA93A6971A930A9310E0E0E3ECA3B4
:1007F200EAA5EDA3FE01B496FA93EA93E2E0EA9346
:10080200DE01959658DDEAA1EEA3EBA1EFA3FE016E
:10081200B496FA93EA93E4E00E94CF08ADB7BEB76C
:100822001F9374DD1F91E03011F4E0E011C0103825
:1008320010F4E0E00DC000E0003148F4E02FA8A57C
:10084200B9A50E94D5080E94DC080F5FF5CFE1E050
:1008520019810881AB960895BA93AA930E94AD09B3
:10086200EB85FC85E7811E2FEB85FC85E0850E2F4D
:10087200EA85E3703E2FEC5FA12F0E949609E1709A
:10088200A885B985EC93E32FEC5FA02F0E9496090F
:10089200E170AE81BF81EC93E32FA02F0E949609F5
:1008A200E170AC81BD81EC93E1E00E94B4092D9628
:1008B2000895AA931A93EB81EE0FEE0FAE2FEA8101
:1008C200EE0FEA2BA981EA2B1E2F123031F01130E4
:1008D20021F0153011F0173011F4E1E001C0E0E031
:1008E200188124960895BA93AA932297ECDEA5E084
:1008F200B0E00E948409E6E2EA93DE01119672DD1D
:10090200ED81FE81FA93EA93EE81EA93AD81BE8195
:1009120087DE27960895EF972997E0E0EABBEBBBC5
:10092200E0EBE7BBE0E0E8BBE4BBE5BBE1BBE2BB7D
:10093200E3BFEFBDEEBDE5BDE9BFE5BFE4BFEAB988
:10094200E0E8E8B9E0E0E0BFE6B9E2E5EDB9E0E011
:10095200EEB9BC9AC49AA0E10E94BF060E94830627
:10096200A4EBB0E00E94B306ACE2B1E00E948409BD
:1009720088DC0E948306A0ECB0E00E94B306A8E7E0
:10098200B0E00E948409E6E2EA93DE01D2962ADD13
:10099200E03029F4A8E7B0E00E948409EACFDE0142
:1009A2009796E4DD1E2F103061F0FE01B796FA93A0
:1009B200EA931A93ADB7BEB70F9332DE0F91E030D0
:1009C20051F4A0D1AFECB0E00E94B306A8E5B2E0CA
:1009D2000E948409CECFA02FA3DEE883F98392D1AF
:1009E200E0E00E941409A881B9818EDE0E941809F4
:1009F200EDEDF0E0FA93EA93E02F0E941D0984E006
:100A02000E94680828960E9423090E942809A0E9EA
:100A1200B1E00E94840976D11430A9F40E94180929
:100A22000E942C09E8A90E941D09EDA90E941D0936
:100A3200EAAD0E941D0980E10E9468086496E0E028
:100A4200EA93A0E02AC00E9418090E942C09E8A992
:100A52000E941D09EDA90E941D09EAAD0E941D090F
:100A620080E10E9468086496E0E00E9414090E94F6
:100A720028090E941809EEEEF0E0FA93EA93EFA536
:100A82000E941D09ECA90E941D09E9AD0E941D09E1
:100A92000E943209E0E0EA93A1E027D10E942809EE
:100AA200A0E9B1E00E948409E02FEC7FE83029F050
:100AB200E02FEC7FE83109F0EEC0173041F4EAA5EF
:100AC200EBA3EBA5ECA3ECA5EDA3EDA507C0EFA16D
:100AD200EBA3E8A5ECA3E9A5EDA3EAA5EEA3E0E666
:100AE200EA93E4E00E94370931F40CD1ABEFB0E0B5
:100AF2000E9442093ECFE4E0EA93DE01549670DEA2
:100B0200E03031F4FFD0AAE0B1E00E94420931CFD7
:100B12005FDEF8D0A5E1B1E025D10E942309E0E033
:100B2200EA83AA81A830C8F40E941809E1EEF0E035
:100B3200FA93EA93EE81F0E0DE015796AE0FBF1F03
:100B4200EC910E941D0984E00E94680828960E9488
:100B52002809EA81EF5FEA83E4CFACE4B4E00E94C3
:100B62008409FE01B796FA93EA931A93ADB7BEB71A
:100B72000F93B9DE0F91E03049F4C4D0A9E1B1E09E
:100B8200F1D0ACEBB2E00E948409F3CEE0E6EA9346
:100B9200E7E00E943709B9F4E1E6EA93E7E0EA9375
:100BA200FE01B596FA93EA93A6E6B2E0D8DDE0300C
:100BB20051F4A8D0A8E2B1E0D5D0A8EEB3E00E94EB
:100BC200840906DED6CEE7E0EA93DE01149608DE5B
:100BD200E03051F497D0AAE3B1E0C4D0A4E8B3E086
:100BE2000E948409F5DDC5CEF3DDFE013396FA934A
:100BF200EA93E0E0EA93EDB7FEB7FA93EA933F9304
:100C0200EDB7FEB7FA93EA932F93ADB7BEB75F93F2
:100C120023DE5F912F913F913A932A93A52F49DECC
:100C22004E2F70D0AAE4B1E09DD0403019F0AEE46E
:100C3200B1E002C0A3E5B1E095D00E941809E8E551
:100C4200F1E0FA93EA93E32F0E941D09E22F0E943A
:100C52001D09E52F0E941D090E943209E8E00E9449
:100C620014090E9428090E9423090E941809E1E63A
:100C7200F1E0FA93EA93ED850E941D09EA890E9448
:100C82001D09EF890E941D090E9432090E9428094C
:100C9200A8E7B5E006C036D0A2E7B1E063D0A0E293
:100CA200B3E00E94840965CEFFCFAA93E5B3EF704B
:100CB200AE2FE881E07FEA2BE5BB8DE08A95F1F764
:100CC200AA9A8DE08A95F1F7AA988DE08A95F1F7B4
:100CD20088C0AA93A881E9DFE881E295E883A88128
:100CE200E4DF85E88A95F1F77CC0AA93E881F0E019
:100CF200E459FD4FE081A981AE0FEBDF59804880B6
:100D020022960895A2E00E944A09ACE0E2DFA1E047
:100D12000E944A09E0E04E2E5E2E0895AA93A88111
:100D2200AA3011F0571448F0E0E0EA934394A42D5E
:100D3200DCDFA881AA3009F454C05394A89AA88190
:100D4200C8DFA8984EC0BA93AA931A93A981BA8110
:100D5200ED91A983BA831E2FE03019F0A12FDEDFB7
:100D6200F5CF09C0BA93AA931A930E940A0919F0FF
:100D7200A12FD4DFFACF188123960895AA93E4B362
:100D8200E06FE4BBA29AA09AA19AAA98A898A998FF
:100D92007880E881E058E0936E02E881E054E093C5
:100DA2006F02A4E1B0E00E9484090E9450090E94EF
:100DB20050090E945009A0E278DF88EC90E0019788
:100DC200F1F7A8E286DFA4E084DFA5E882DFA6E0EF
:100DD20080DF98DF06C0AA93E881EFB9779BFECF48
:100DE200EFB121960895BA93AA931A930A93AA810E
:100DF200BB8112960E949E09309759F1AA81BB814C
:100E020014960E949E098F01309761F00230E0E053
:100E12001E0798F0F80131978F01AA81BB811496C1
:100E2200ED93FC93AA81BB811296ED91FD913196CF
:100E3200FE93EE933197AC81A083AA81BB810E947D
:100E42009E09FF232AF0ED91FD913196FE93EE93D8
:100E520006C0AA81BB81EFEFFFEFED93FC931981EE
:100E6200088125960895BA93AA9326970E94AB0902
:100E720010E0AC85BD85E0E0F0E0ED93FC93EA89FB
:100E8200FB893196EA8BFB8B3197E4912E2FE03070
:100E920009F415C1E12FE03039F4253211F411E0E3
:100EA20002C00E9458090AC1E130A9F4253219F49E
:100EB2000E94580902C112E040E000E02D3211F414
:100EC20001E0FCC02B3211F44BE2F8C0203211F4E5
:100ED20040E2F4C002C0E23039F450E013E02033C3
:100EE20011F40068EBC003C0E33009F0E7C020331F
:100EF20010F02A3308F007C0AAE05A9F502DE22FC3
:100F0200E0535E0FDBC0E22FE33649F40E945F0933
:100F1200E889F989A481AA930E946509CEC0E337C2
:100F220041F40E945F090E946B090E949C081E2FD7
:100F32000AC0E03761F40E945F090E946B090E94B7
:100F4200A8081E2F086002600F7730E034C0E43634
:100F520011F0E93611F4046002C0E53731F4E6E934
:100F6200F0E0EE83FF8315E00CC0E83511F4086071
:100F720003C0E83709F0A1C0E0EAF0E0EE83FF83A6
:100F820014E002FF14C00E945F090E947509AB853C
:100F9200AA233AF4EA85FB850E949209EA87FB8735
:100FA2004DE2403011F01F5F01C00B7F04C00E9470
:100FB2005F090E94750900FD11C0151778F407FF3B
:100FC20008C002FF04C00B7F242F115001C020E390
:100FD20001C020E20E9458095150EFCF312F01FF8A
:100FE20017C03030A1F003FF06C0EE81FF812591CA
:100FF200EE83FF8305C0AE81BF812D91AE83BF8397
:101002000E945809503009F051503150EACF4BC07C
:1010120020E3EE81FF810E94A209E887F987EE8131
:10102200FF813296EE83FF83E885F985AA85BB8529
:10103200AE17BF0750F02F5FA885B985EA85FB85FB
:10104200EA1BFB0BEA87FB87EFCF2A3328F003FF6B
:1010520002C0295F01C0295D04FD1AC0213320F4BA
:10106200A885B985119709F409C0531710F000FF3C
:1010720001C013C020E207FF0BC020E3006102FFA2
:1010820007C00B7F4A930E946509503009F0515006
:101092000E945809503009F051503150A885B98545
:1010A200129708F0B5CF00FF08C0503031F0515010
:1010B200E0E2EA930E946509F8CF10E0E0CEAC8549
:1010C200BD850E949E090E94B20964960895FF920E
:1010D200F82E26970E94AD090E947D09309719F4D7
:1010E200EFEFFFEF23C0DE0116960E948E098D01FD
:1010F2000E947D09EE83FF83E0E0E887E987DE0155
:101102001A960E948E090E949E09FA93EA931A93F4
:101112000A93E4EFF6E0FA93EA93DE011A96A3DE6D
:101122009F01AE81BF81E0E0EC93F9010E94B40916
:101132002A96FF900895BA93AA93A991B991EE279E
:10114200FF276D91662311F03196FBCF0895BA9374
:10115200AA93AA27BB27E991F9910590002011F0E3
:101162001196FBCFFD010895AA93E981EA93AA8122
:101172000C940B01EA93A0E00C94FD00BA93AA939D
:101182001A93E1E0F7CFEAE0EA93A0E80C941E019B
:10119200EE27A10FBE1FAC910C94FD00EA93FE0155
:1011A2003596FA93EA930895F0E0EA0FFB1F0F01D8
:1011B200E02FF0E00895DE011296AE0FBF1FEC9112
:1011C200D001EC930895FE013896FA93EA930895BC
:1011D200EA93DE0119960E945C01EE810895EA937A
:1011E200DE0115960E942502E0300895ED81AC8162
:1011F200EA27AE81EA27AF81EA271E2FE885E117A9
:101202000895EC83E3E9EA93FE013296FA93EA93B6
:101212000895E981FA813196E983FA833197E4915D
:101222001E2FE0300895EA93A0E00C947606FE01AA
:10123200F396FA93EA930895FF27662777270E9489
:10124200A6090895E0E0EA93A1E00C947606DE0197
:10125200D3960C94A406E6EEF0E0FA93EA93EBA59B
:10126200EBCF8CE00E94680860960895EA93FE0135
:10127200B596FA93EA93A0E6B2E00E94B003E0309A
:1012820008950E94B306A0E2B3E00E9484090C9480
:10129200E9030E946A06A3E0B0E00C948409A0E38B
:1012A2000E94560688EC90E00197F1F708952A9380
:1012B200AD85BE85EF85F88909950895E889F98994
:1012C2003497E88BF98B0895AD85BE85EF85F88953
:1012D20009950895A889B98914960E949E09EE83FA
:1012E200FF83AE81BF810895A889B98914960E94AF
:1012F2009E09EA87FB870895DE011C960E948E09EB
:101302000E949E090895109639F0A89580ED97E005
:101312000197F1F71197C9F708950024AF0DB01D99
:101322000895F195E195F0400895EE230E2EEA2FEF
:1013320019F0E6950A94E9F70895ED91FC91119759
:1013420008950590F491E02D08957A936A93FA93A3
:10135200EA9308955A934A933A932A931A930A93D3
:1013620008955D814C813B812A811981088108950C
:00000001FF
