:040000000C9432002A
:100004000C9400000C9400000C945F000C9400000D
:100014000C9400000C9400000C9400000C9400005C
:100024000C9400000C9400000C9400000C9400004C
:100034000C9400000C9400000C9400000C9400003C
:100044000C9400000C9400000C9400000C9400002C
:10005400000000000000000008000400540000003C
:10006400F894EE27ECBBF1E0FBBFEBBFE5BF8DE0FE
:10007400A2E0BB27ED938A95E9F780E098E0A0E63B
:10008400ED930197E9F7ECE5F0E085919591009700
:1000940061F0A591B59105901590BF01F00105900F
:1000A4000D920197E1F7FB01F0CFEFE5EDBFE8E03A
:1000B400EEBFC0E6D2E00C9489000A92EA93FA9368
:1000C400EFB7EA93042C052819F4E1E0F0E03F01CE
:1000D400F20131962F01E2E0F0E0E415F50511F4A8
:1000E40044245524E991EFBFF991E99109901895B9
:1000F400AA93E881E064E7B98BE18A95F1F7369A2F
:10010400349BFECF349AE4B1F5B121960895E0E032
:10011400EABBEBBBE3E0E7BBE0E0E8BBE4BBE5BB89
:10012400E0E6E1BBE0E0E2BBE3BFE2BFECBFEFBD72
:10013400EEBDEDBDECBDE7BDE6BDEBBDEABDE9BD81
:10014400E8BDE2BDE5BDE4BDE3BDE9BFEBB7E062F8
:10015400EBBFE0E0E5BFE4BFE0E2EABFE0E0EAB91C
:10016400E0E8E8B9E0E4E7B9E6E8E6B9E0E0E0BFF2
:10017400EDB9E6BF7894E1E0F0E0E415F50509F0A7
:100184003FC02297A0E0B4DFE883F983C09AE1E09E
:10019400F0E0E615F70541F4C19AAAE0B0E00E9448
:1001A4000801C19866247724A4E6B0E00E940801FF
:1001B400A881B981A53FE1E0BE0730F0C19A959AC4
:1001C400E1E0F0E04F0107C0C1980A2C0B2809F4C4
:1001D400959888249924879B06C0969A959AE1E07D
:1001E400F0E05F0107C09698082C092809F4959857
:1001F400AA24BB24A5E0B0E00E940801229604C012
:10020400C198C0989598C698B6CFFFCF109639F08C
:10021400A89580ED97E00197F1F71197C9F7089534
:00000001FF
