:080000000C944F000C94030165
:100008000C9425010C942B010C9400000C94000016
:100018000C9400000C9400000C9400000C94000058
:100028000C9400000C9400000C9400000C94000048
:100038000C9400000C9400000C9400000C94000038
:100048000C9400000C9400000C9400003E4469736A
:1000580041726D003E41726D003E4C6173657220C5
:1000680073656E7365004D6F76656D656E7420738C
:10007800656E7365003E4D6F76656D656E742073B1
:10008800656E7365003E426F7468000080C00200B0
:10009800680294000000F894EE27ECBBF1E0FBBF87
:1000A800EBBFE5BF8DE0A2E0BB27ED938A95E9F7AA
:1000B80080E098E0A0E6ED930197E9F7E6E9F0E043
:1000C80085919591009761F0A591B591059015904E
:1000D800BF01F00105900D920197E1F7FB01F0CF08
:1000E800EFE5EDBFE8E0EEBFC0E6D2E00C944A01D0
:1000F800E0916502E03019F5E0916302E03069F4BF
:100108000E947002A4E5B0E00E947502A8E5B0E084
:100118000E943202E0E0F0E00895A0916302A1306D
:1001280069F40E947002A5E5B0E00E947502ACE592
:10013800B0E00E943202E1E0F0E0089537C0A091FB
:100148006502A13099F5E0916402E03069F40E94FB
:100158007002A1E6B0E00E947502AEE6B0E00E942F
:100168003202E2E0F0E00895A0916402A13069F45F
:100178000E947002A2E6B0E00E947502ADE7B0E00E
:100188000E943202E3E0F0E00895A0916402A230F8
:1001980069F40E947002AEE6B0E00E947502ADE814
:1001A800B0E00E943202E4E0F0E00895EFEFFFEFE4
:1001B8000895BA93AA93A881B981A53FE1E0BE0743
:1001C80024F0C19A959AE1E007C0C198E0916202D3
:1001D800E03009F49598E0E0E09361021EC1879B46
:1001E80004C0969A959AE1E007C09698E09161025A
:1001F800E03009F49598E0E0E093620208950E94E7
:100208007A02E03069F4E0916302EF5FE093630201
:10021800A0916302A23019F4E0E0E093630210C0F9
:10022800A0916002A13061F4E0916402EF5FE09375
:100238006402A0916402A33019F4E0E0E093640240
:1002480012C0EA93E1E0E0936602E99118950E94F2
:100258007A02EF5FE0936002A0916002A23019F485
:10026800E0E0E0936002E991EFBFE991A991189568
:10027800AA93E881E064E7B98BE18A95F1F7369AA9
:10028800349BFECF349AE4B1F5B124C1E0E0EABB77
:10029800EBBBE3E0E7BBE0E0E8BBE4BBE5BBE0E7E2
:1002A800E1BBE0E0E2BBE3BFE2BFECBFEFBDEEBD08
:1002B800EDBDECBDE7BDE6BDEBBDEABDE9BDE8BD02
:1002C800E2BDE5BDE4BDE3BDE9BFEBB7E06EEBBF62
:1002D800EAE0E5BFE0E0E4BFE0EEEABFE0E0EAB96B
:1002E800E0E8E8B9E0E4E7B9E6E8E6B9E0E0E0BF6D
:1002F800EDB9E6BFE4B7E068E4BFE4B7E068E4BF9F
:10030800AEE1B0E00E94AA02A0E1BBD07894F0DE92
:10031800E0936702E0916702F0E0309731F4A09132
:100328006602A13009F4E9D04AC0E130A0E0FA073A
:1003380049F4A0916602A13021F4E1E0E09365025E
:10034800DCD03DC0E230A0E0FA0779F4A091600269
:10035800A13049F4DCD09698C09AA881B98129DFE8
:10036800DDD0229601C0DED02AC0E330A0E0FA0733
:1003780061F4A0916002A13031F4C198C098949AB8
:100388002EDFCCD001C0CED01AC0E430A0E0FA07EE
:10039800B1F4A0916002A13051F4B9D0C09AA881FB
:1003A800B98107DF949A1BDFB9D0229608C0C1989B
:1003B800C098959894989698E0E0E0936502AED03E
:1003C800A6CFFFCFAA93E5B3EF70AE2FE881E07F09
:1003D800EA2BE5BB8DE08A95F1F7AA9A8DE08A951C
:1003E800F1F7AA988DE08A95F1F774C0AA93A881CD
:1003F800E9DFE881E295E883A881E4DF85E88A956A
:10040800F1F768C0AA93E881F0E0E859FD4FE08170
:10041800A981AE0FEBDF5980488022960895A2E0AB
:1004280089D0ACE0E3DFA1E085D0E0E04E2E5E2E7F
:100438000895AA93A881AA3011F0571448F0E0E073
:10044800EA934394A42DDEDFA881AA3009F442C0C0
:100458005394A89AA881CADFA8983CC0BA93AA93D3
:100468001A93E981FA813196E983FA833197E49105
:100478001E2FE03019F0A12FDCDFF3CF188123966F
:100488000895AA93E4B3E06FE4BBA29AA09AA19A54
:10049800AA98A898A9987880E881E058E0936A0219
:1004A800E881E054E0936B02A4E1B0E00E94AA0264
:1004B80046D045D044D0A0E285DF88EC90E0019793
:1004C800F1F7A8E293DFA4E091DFA5E88FDFA6E0CB
:1004D8008DDFA5DF21960895A2DFE0E0EA93A0E092
:1004E80091CFBCDFE0E0EA93A1E08CCFAA93EA9336
:1004F800EFB7EA93E09160020895959AAAE0B0E018
:100508000E94AA029598E0E0E09366020895229777
:10051800A0E00E943C01E883F9830895A4E6B0E0D6
:100528000C94AA02C198C09895989698E0E0E09338
:10053800650208955BDFA3E0B0E00C94AA02A0E393
:1005480041DF88EC90E00197F1F70895109639F0B3
:10055800A89580ED97E00197F1F71197C9F70895ED
:00000001FF
