:0C0000000C94BE000C9400000C94000056
:10000C000C9400000C9400000C9400000C94000064
:10001C000C9400000C9400000C9400000C94000054
:10002C000C9400000C9400000C9400000C94000044
:10003C000C9400000C9400000C9400000C94000034
:10004C000C9400000C9400004D494641524520434D
:10005C006C617373696320314B004D4946415245C5
:10006C0020436C617373696320344B00556C74725C
:10007C00616C696768742F4E54414700556E6B6E06
:10008C006F776E2F6F74686572001027E803640039
:10009C000A0001000010000110000100FFFFFFFF2B
:1000AC00FFFF52433532322052656164790053634D
:1000BC00616E206120636172642E2E2E0053656C7C
:1000CC00656374206661696C65640053414B3A2525
:1000DC00303258005549443A253032582530325880
:1000EC00253032582530325800417574682D5265D0
:1000FC006164204641494C0052656164204572722E
:10010C006F720042343A0041757468205472616910
:10011C006C65724641494C00547261696C65722081
:10012C005265616445727200524F3A005945532032
:10013C00004E4F202000433A25642564256400417D
:10014C0043433A2530325825303258253032580046
:10015C00524F3A4E2F4120285479706532290000B5
:10016C0080C006006002A800020066026C0100005C
:10017C00F894EE27ECBBF1E0FBBFEBBFE5BF8DE0E5
:10018C00A2E0BB27ED938A95E9F780E098E0A0E622
:10019C00ED930197E9F7EEE6F1E0859195910097E3
:1001AC0061F0A591B59105901590BF01F0010590F6
:1001BC000D920197E1F7FB01F0CFEFE5EDBFE8E021
:1001CC00EEBFC0E6D2E00C944D04C4980895C49AD6
:1001DC000895AA93FADFE981EE0FEE77AE2F0E9415
:1001EC007506A8810E947506F2DF0C940A06AA9384
:1001FC001A93EBDFE981EE0FEE77E068AE2F0E94E9
:10020C007506A0E00E9475061E2FE1DFE12F188114
:10021C000C940A060E943E08A981EA2BAE2FD9DF66
:10022C000C940A060E943E08AE2FE981E095EA2361
:10023C00AE2FCFDF0C940A06E1E0EA93AFE0C9DF02
:10024C00A2E3B0E00E9409090895A4E1D0DFE370B5
:10025C0021F4E4E1EA93A3E0DDDF0895EDDFEAE2C7
:10026C00EA93ADE8B6DFEBE2EA93AEE3B2DFEDE2A0
:10027C00EA93AEE1AEDFECE20E944408E5E1EA93DA
:10028C00A0E4A7DFE1E1EA93ADE3A3DFDEDF0895AD
:10029C000E9448080E944D0810E0EB811E1740F4A4
:1002AC00E9E0EA93AD81BE810E9452081F5FF5CF51
:1002BC00E1E0EA93A3E08DDF10E01F3F30F4A5E00E
:1002CC0096DFE47011F41F5FF8CFA2E290DFA981F2
:1002DC00BA81EC93A1E28BDFA981BA811196EC93E0
:1002EC00188126960895BA93AA930E943209E2E0E7
:1002FC00EA93A7EF6EDFE4E0EA93A0E893DF0E94B5
:10030C004D08E1E00E94440810E0E8851E1740F417
:10031C00E9E0EA93AA85BB850E9452081F5FF5CFDE
:10032C00E1E0EA93ACE055DFEDE0EA93A0E872DFA0
:10033C0018ECA4E05CDF0E2F115011F0E07309F003
:10034C0001C0F7CFEDE0EA93A0E86CDF103011F4B8
:10035C00E0E056C1A6E04BDFEB7111F0E0E050C1DC
:10036C00AAE045DF0E2FACE042DFE7703E2FEC81B8
:10037C00FD81309781F0303039F0E02FE150EE0FF5
:10038C00EE0FEE0FE30F04C0E02FEE0FEE0FEE0FAB
:10039C00AC81BD81EC9310E0101778F4E12FAE81A5
:1003AC00BF81F0E0EA0FFB1FFF93EF93A9E01FDF83
:1003BC00AF91BF91EC931F5FEFCFE1E021C1BA93F6
:1003CC00AA9324971A930A93188500E0EDE0EA9318
:1003DC00A7E0FFDEEDB7FEB7FA93EA931F93E1E0D7
:1003EC000E945808ADB7BEB70F937DDF0F911F91D8
:1003FC00E03011F4E0E011C0EDE00E94440800315F
:10040C0011F0E0E00AC0EA81AE81BF81EC93EB8190
:10041C00AE81BF811196EC93E1E019810881299698
:10042C000895BA93AA932C971A930A9310E0E8892B
:10043C00EC87E0E2ED87EDE00E944408EEE0EA9301
:10044C00A0E8C7DEFE013C96FA93EA93E2E00E9434
:10045C005808ADB7BEB71F9346DF1F91E03011F4BB
:10046C00E0E011C0183211F0E0E00DC000E0053002
:10047C0048F4E02FAE85BF850E945E080E94650897
:10048C000F5FF5CFE1E01981088161960895BA9369
:10049C00AA931A93A981BA81AC91E981FA81E1817D
:1004AC00AE27E981FA81E281AE27E981FA81E38105
:1004BC00EA271E2F0C944506BA93AA932F971A93EA
:1004CC000A9310E0EDE00E944408AB89BC89DFDFA1
:1004DC000E2FED89E887E0E7E987AB89BC89EC91C1
:1004EC00EA87EB89FC89E181EB87EB89FC89E28166
:1004FC00EC87EB89FC89E381ED87FE013E96008356
:10050C00FE013896FA93EA93E7E0EA93DE01199636
:10051C00BFDEEE81EF87EF81E88BFE013896FA9310
:10052C00EA93E9E00E945808ADB7BEB71F93DBDE33
:10053C001F91E03011F4E0E009C0183111F0E0E057
:10054C0005C0EA81A989BA89EC93E1E01981088197
:10055C0066960895BA93AA9325970E94320930E0C3
:10056C00E3E90E946D0811F4E0E04AC0AC81A838C0
:10057C0079F5ED81A985BA85EC93EE81A985BA85CB
:10058C001196EC93EF81A985BA851296EC93E5E967
:10059C000E946D0811F4E0E033C00E94740811F061
:1005AC00E0E02EC0EC81A985BA851396EC93ED8121
:1005BC00A985BA851496EC93EE81A985BA85159612
:1005CC00EC93EF81A985BA851696EC9337E017C0AA
:1005DC000E94740811F0E0E013C000E0043070F4E5
:1005EC00E02FA985BA850E945E08DE011496AE0F35
:1005FC00BF1FEC91D001EC930F5FF0CF34E0E32FF1
:10060C000E9439092B960895BA93AA9324971A93AA
:10061C00AF81A430A9F4A885B985EC91E983E8856C
:10062C00F985E181EA83E885F985E281EB83E88548
:10063C00F985E3810E947F08A885B9853DDF34C028
:10064C00AF81A73081F5E8E8E983A885B985EC91FD
:10065C00EA83E885F985E181EB83E885F985E28118
:10066C000E947F08ADB7BEB71F9326DF1F91E03005
:10067C00D1F0E885F985E381E983E885F985E481A2
:10068C00EA83E885F985E581EB83E885F985E681E0
:10069C00EC83E5E9EA93FE013296FA93EA93A88596
:1006AC00B9850ADF01C0E0E018812A960895BA9353
:1006BC00AA931A930E94870821F0A12F0E94180672
:1006CC00F9CF0C944506AA931A93E981EC7F1E2F5F
:1006DC00183029F4E4E5F0E018810C940A0618317E
:1006EC0029F4E6E6F0E018810C940A06103029F49F
:1006FC00E8E7F0E018810C940A06E8E8F0E01881CD
:10070C000C940A060E9448080E944D08E9E0EA93FE
:10071C00A0E65FDDE9E0EA93AC815BDD10E016302A
:10072C0050F4E9E0EA93E12FF0E0E05AFD4FA081AC
:10073C0050DD1F5FF4CF10E0143040F4E9E0EA9391
:10074C00AA81BB810E9452081F5FF6CFE1E0EA93B9
:10075C00AEE03FDD10E0183C60F4A8E048DDE87046
:10076C0011F0E1E007C0A1E0B0E00E9409091F5FB1
:10077C00F2CFE0E0188124960895E8E0EA93A8E02F
:10078C0051DDE1E00E9444080895BA93AA93A6971C
:10079C001A930A9310E0E0E3ECA3EAA5EDA3FE01A3
:1007AC00B496FA93EA93E2E0EA93DE01959670DD53
:1007BC00EAA1EEA3EBA1EFA3FE01B496FA93EA93A0
:1007CC00E4E00E945808ADB7BEB71F938CDD1F91B3
:1007DC00E03011F4E0E011C0103810F4E0E00DC08E
:1007EC0000E0003148F4E02FA8A5B9A50E945E08EE
:1007FC000E9465080F5FF5CFE1E019810881AB9687
:10080C000895BA93AA930E943209AB85BC851696BB
:10081C001C91AB85BC8517960C91EA85E3703E2F35
:10082C00A12F0E941B09E170A885B985EC93E32FD9
:10083C00EC5FA12F0E941B09E170AE81BF81EC938C
:10084C00E32FA02F0E941B09E170AC81BD81EC93BA
:10085C00E1E00E9439092D960895AA931A930A9300
:10086C00EC81EE0FEE0FAE2FEB81EE0FEA2BAA818F
:10087C00EA2B1E2F00E0123031F0113021F0153030
:10088C0011F0173009F401E0E02F0C94B906EF9742
:10089C002997E0E0EABBEBBBE0EBE7BBE0E0E8BBB1
:1008AC00E4BBE5BBE1BBE2BBE3BFEFBDEEBDE5BD29
:1008BC00E9BFE5BFE4BFEAB9E0E8E8B9E0E0E0BFD2
:1008CC00E6B9E2E5EDB9E0E0EEB9BC9AC49AA0E174
:1008DC000E9448069BD1AEEAB0E00E943C06ACE216
:1008EC00B1E00E940909BADC91D1AAEBB0E0BED10B
:1008FC00A6E9B0E00E940909E6E2EA93DE01D2968D
:10090C005EDDE03029F4A8ECB0E00E940909ECCFE0
:10091C00DE0197961FDE1E2F103061F0FE01B79698
:10092C00FA93EA931A93ADB7BEB70F936DDE0F919E
:10093C00E03039F46BD1A9ECB0E098D10E94910869
:10094C00D3CFA02FC0DEE883F98360D1E0E00E9412
:10095C009508A881B981ABDE0E949908E7EDF0E01B
:10096C00FA93EA93E02F0E949E0884E00E94F1071C
:10097C0028960E94A4080E94A9080E94910846D1BA
:10098C001430A9F40E9499080E94AD08E8A90E94AD
:10099C009E08EDA90E949E08EAAD0E949E0880E187
:1009AC000E94F1076496E0E0EA93A0E02AC00E945E
:1009BC0099080E94AD08E8A90E949E08EDA90E9422
:1009CC009E08EAAD0E949E0880E10E94F1076496A1
:1009DC00E0E00E9495080E94A9080E949908E8EEA0
:1009EC00F0E0FA93EA93EFA50E949E08ECA90E940E
:1009FC009E08E9AD0E949E080E94B308E0E0EA93CD
:100A0C00A1E0F7D00E94A9080E949108E02FEC7F8A
:100A1C00E83029F0E02FEC7FE83109F0C0C0173046
:100A2C0041F4EAA5EBA3EBA5ECA3ECA5EDA3EDA596
:100A3C0007C0EFA1EBA3E8A5ECA3E9A5EDA3EAA5FC
:100A4C00EEA3E4E00E94B80831F4E0D0A5EFB0E0EA
:100A5C000E94BF0849CFE4E0EA93DE01549695DE8C
:100A6C00E03031F4D3D0A4E0B1E00E94BF083CCF19
:100A7C0084DECCD0AFE0B1E0F9D00E94A408E0E075
:100A8C00EA83AA81A830C8F40E949908EBEDF0E043
:100A9C00FA93EA93EE81F0E0DE015796AE0FBF1F9A
:100AAC00EC910E949E0884E00E94F10728960E9417
:100ABC00A908EA81EF5FEA83E4CFA0EBB4E00E94DF
:100ACC000909E7E00E94B80831F4A0D0A3E1B1E035
:100ADC000E94C70809CFE7E0EA93DE01149655DEC1
:100AEC00E03031F493D0A4E2B1E00E94C708FCCE10
:100AFC0044DEFE013396FA93EA93E0E0EA93EDB715
:100B0C00FEB7FA93EA933F93EDB7FEB7FA93EA93E5
:100B1C002F93ADB7BEB75F9374DE5F912F913F916A
:100B2C003A932A93A52F99DE4E2F70D0A4E3B1E00F
:100B3C009DD0403019F0A8E3B1E002C0ADE3B1E0C4
:100B4C0095D00E949908E2E4F1E0FA93EA93E32F3E
:100B5C000E949E08E22F0E949E08E52F0E949E088C
:100B6C000E94B308E6E00E9495080E94A9080E9422
:100B7C00A4080E949908EBE4F1E0FA93EA93ED855E
:100B8C000E949E08EA890E949E08EF890E949E0896
:100B9C000E94B3080E94A908A8E7B5E006C036D0A9
:100BAC00ACE5B1E063D0A4E8B3E00E9409099CCEA7
:100BBC00FFCFAA93E5B3EF70AE2FE881E07FEA2B6D
:100BCC00E5BB8DE08A95F1F7AA9A8DE08A95F1F74D
:100BDC00AA988DE08A95F1F788C0AA93A881E9DFDD
:100BEC00E881E295E883A881E4DF85E88A95F1F74E
:100BFC007CC0AA93E881F0E0EA59FD4FE081A9811D
:100C0C00AE0FEBDF5980488022960895A2E00E9437
:100C1C00CF08ACE0E2DFA1E00E94CF08E0E04E2E6E
:100C2C005E2E0895AA93A881AA3011F0571448F0AB
:100C3C00E0E0EA934394A42DDCDFA881AA3009F408
:100C4C0054C05394A89AA881C8DFA8984EC0BA93F0
:100C5C00AA931A93A981BA81ED91A983BA831E2F05
:100C6C00E03019F0A12FDEDFF5CF09C0BA93AA93BB
:100C7C001A930E94870819F0A12FD4DFFACF18819C
:100C8C0023960895AA93E4B3E06FE4BBA29AA09ACA
:100C9C00A19AAA98A898A9987880E881E058E0933E
:100CAC006802E881E054E0936902A4E1B0E00E949C
:100CBC0009090E94D5080E94D5080E94D508A0E217
:100CCC0078DF88EC90E00197F1F7A8E286DFA4E0EA
:100CDC0084DFA5E882DFA6E080DF98DF06C0AA9358
:100CEC00E881EFB9779BFECFEFB121960895BA93C7
:100CFC00AA931A930A93AA81BB8112960E94230984
:100D0C00309759F1AA81BB8114960E9423098F0157
:100D1C00309761F00230E0E01E0798F0F80131974F
:100D2C008F01AA81BB811496ED93FC93AA81BB81A0
:100D3C001296ED91FD913196FE93EE933197AC8125
:100D4C00A083AA81BB810E942309FF232AF0ED9185
:100D5C00FD913196FE93EE9306C0AA81BB81EFEF15
:100D6C00FFEFED93FC931981088125960895BA93B2
:100D7C00AA9326970E94300910E0AC85BD85E0E06F
:100D8C00F0E0ED93FC93EA89FB893196EA8BFB8BBF
:100D9C003197E4912E2FE03009F415C1E12FE030AA
:100DAC0039F4253211F411E002C00E94DD080AC1A9
:100DBC00E130A9F4253219F40E94DD0802C112E0D9
:100DCC0040E000E02D3211F401E0FCC02B3211F4B4
:100DDC004BE2F8C0203211F440E2F4C002C0E23021
:100DEC0039F450E013E0203311F40068EBC003C079
:100DFC00E33009F0E7C0203310F02A3308F007C0C5
:100E0C00AAE05A9F502DE22FE0535E0FDBC0E22F79
:100E1C00E33649F40E94E408E889F989A481AA938D
:100E2C000E94EA08CEC0E33741F40E94E4080E9415
:100E3C00F0080E9425081E2F0AC0E03761F40E94BA
:100E4C00E4080E94F0080E9431081E2F086002601E
:100E5C000F7730E034C0E43611F0E93611F4046059
:100E6C0002C0E53731F4E6E9F0E0EE83FF8315E0EC
:100E7C000CC0E83511F4086003C0E83709F0A1C0D4
:100E8C00E0EAF0E0EE83FF8314E002FF14C00E945E
:100E9C00E4080E94FA08AB85AA233AF4EA85FB859C
:100EAC000E941709EA87FB874DE2403011F01F5F63
:100EBC0001C00B7F04C00E94E4080E94FA0800FDE8
:100ECC0011C0151778F407FF08C002FF04C00B7F90
:100EDC00242F115001C020E301C020E20E94DD0844
:100EEC005150EFCF312F01FF17C03030A1F003FF6D
:100EFC0006C0EE81FF812591EE83FF8305C0AE8194
:100F0C00BF812D91AE83BF830E94DD08503009F064
:100F1C0051503150EACF4BC020E3EE81FF810E944B
:100F2C002709E887F987EE81FF813296EE83FF83EC
:100F3C00E885F985AA85BB85AE17BF0750F02F5FF2
:100F4C00A885B985EA85FB85EA1BFB0BEA87FB873D
:100F5C00EFCF2A3328F003FF02C0295F01C0295DBF
:100F6C0004FD1AC0213320F4A885B985119709F422
:100F7C0009C0531710F000FF01C013C020E207FF97
:100F8C000BC020E3006102FF07C00B7F4A930E9455
:100F9C00EA08503009F051500E94DD08503009F039
:100FAC0051503150A885B985129708F0B5CF00FF84
:100FBC0008C0503031F05150E0E2EA930E94EA0848
:100FCC00F8CF10E0E0CEAC85BD850E9423090E94CD
:100FDC00370964960895FF92F82E26970E943209DD
:100FEC000E940209309719F4EFEFFFEF23C0DE01E6
:100FFC0016960E9413098D010E940209EE83FF834D
:10100C00E0E0E887E987DE011A960E9413090E9446
:10101C002309FA93EA931A930A93EDE7F6E0FA930D
:10102C00EA93DE011A96A3DE9F01AE81BF81E0E058
:10103C00EC93F9010E9439092A96FF900895BA930E
:10104C00AA93A991B991EE27FF276D91662311F010
:10105C003196FBCF0895BA93AA93AA27BB27E9919F
:10106C00F9910590002011F01196FBCFFD01089528
:10107C00AA93E981EA93AA810C94FD00EA93A0E07B
:10108C000C94EF00BA93AA931A93E1E0F7CFEAE03D
:10109C00EA93A0E80C941001EE27A10FBE1FAC91AF
:1010AC000C94EF00EA93FE013596FA93EA930895B7
:1010BC00F0E0EA0FFB1F0F01E02FF0E00895DE01D6
:1010CC001296AE0FBF1FEC91D001EC930895EA93EA
:1010DC00DE0115960E941702E0300895ED81AC8177
:1010EC00EA27AE81EA27AF81EA271E2FE885E117B0
:1010FC000895EC83E3E9EA93FE013296FA93EA93BE
:10110C000895E981FA813196E983FA833197E49164
:10111C001E2FE0300895A8E5B2E00C940909EA937B
:10112C00A0E00C94FF05FE01F396FA93EA93089560
:10113C00FF27662777270E942B090895E0E0EA93A2
:10114C00A1E00C94FF05DE01D3960C942D06E0EE85
:10115C00F0E0FA93EA93EBA5EBCF8CE00E94F10759
:10116C0060960895EA93DE0194960E948803E0301D
:10117C0008950E943C06A0E2B3E00E9409090C9479
:10118C00C3030E943C06A4E8B3E00E9409090C9436
:10119C00C3030E94F305A3E0B0E00C940909A0E39B
:1011AC000E94DF0588EC90E00197F1F708952A93EF
:1011BC00AD85BE85EF85F88909950895E889F9898B
:1011CC003497E88BF98B0895AD85BE85EF85F8894A
:1011DC0009950895A889B98914960E942309EE836C
:1011EC00FF83AE81BF810895A889B98914960E94A6
:1011FC002309EA87FB870895DE011C960E941309D8
:10120C000E9423090895109639F0A89580ED97E077
:10121C000197F1F71197C9F708950024AF0DB01D90
:10122C000895F195E195F0400895EE230E2EEA2FE6
:10123C0019F0E6950A94E9F70895ED91FC91119750
:10124C0008950590F491E02D08957A936A93FA939A
:10125C00EA9308955A934A933A932A931A930A93CA
:10126C0008955D814C813B812A8119810881089503
:00000001FF
