:020000000C945E
:100002004F000C9403010C9425010C942B010C94C9
:1000120000000C9400000C9400000C9400000C945E
:1000220000000C9400000C9400000C9400000C944E
:1000320000000C9400000C9400000C9400000C943E
:1000420000000C9400000C9400000C9400000C942E
:1000520000003E44697341726D003E41726D003E84
:100062004C617365722073656E7365004D6F7665C2
:100072006D656E742073656E7365003E4D6F7665B7
:100082006D656E742073656E7365003E426F7468B1
:10009200000080C00200690294000000F894EE277C
:1000A200ECBBF1E0FBBFEBBFE5BF8DE0A2E0BB27FD
:1000B200ED938A95E9F780E098E0A0E6ED93019749
:1000C200E9F7E6E9F0E085919591009761F0A59155
:1000D200B59105901590BF01F00105900D92019721
:1000E200E1F7FB01F0CFEFE5EDBFE8E0EEBFC0E6E0
:1000F200D2E00C944B01E0916502E03019F5E091F9
:100102006302E03069F40E947F02A4E5B0E00E943D
:100112008302A8E5B0E00E944102E0E0F0E0089529
:10012200A0916302A13069F40E947F02A5E5B0E0CC
:100132000E948302ACE5B0E00E944102E1E0F0E0FF
:10014200089537C0A0916502A13099F5E09164024B
:10015200E03069F40E947F02A1E6B0E00E948302CF
:10016200AEE6B0E00E944102E2E0F0E00895A09124
:100172006402A13069F40E947F02A2E6B0E00E940C
:100182008302ADE7B0E00E944102E3E0F0E00895AF
:10019200A0916402A23069F40E947F02AEE6B0E050
:1001A2000E948302ADE8B0E00E944102E4E0F0E088
:1001B2000895EFEFFFEF0895BA93AA93A881B9814A
:1001C200A53FE1E0BE0724F0C19A0E94880207C061
:1001D200C198E0916202E03009F49598E0E0E09382
:1001E20061022DC1879B04C0969A0E94880207C0B3
:1001F2009698E0916102E03009F49598E0E0E0938E
:10020200620208950E948F02E03069F4E091630275
:10021200EF5FE0936302A0916302A23019F4E0E081
:10022200E093630210C0A0916002A13061F4E091FA
:100232006402EF5FE0936402A0916402A33019F4B8
:10024200E0E0E093640212C0EA93E1E0E093660228
:10025200E99118950E948F02EF5FE0936002A091EE
:100262006002A23019F4E0E0E0936002E991EFBF8E
:10027200E991A9911895AA93E881E064E7B98BE125
:100282008A95F1F7369A349BFECF349AE4B1F5B1F0
:100292000C947D02E0E0EABBEBBBE3E0E7BBE0E00D
:1002A200E8BBE4BBE5BBE0E7E1BBE0E0E2BBE3BF08
:1002B200E2BFECBFEFBDEEBDEDBDECBDE7BDE6BDFF
:1002C200EBBDEABDE9BDE8BDE2BDE5BDE4BDE3BD10
:1002D200E9BFEBB7E06EEBBFEAE0E5BFE0E0E4BF09
:1002E200E0EEEABFE0E0EAB9E0E8E8B9E0E4E7B965
:1002F200E6E8E6B9E0E0E0BFEDB9E6BFE4B7E06802
:10030200E4BFE4B7E068E4BFAEE1B0E00E94BF0240
:10031200A0E1C9D07894EFDEE0936702E091680231
:10032200A0916702EA1709F08CD0E0916702F0E031
:10033200309731F4A0916602A13009F4F6D04AC098
:10034200E130A0E0FA0749F4A0916602A13021F45D
:10035200E1E0E0936502E9D03DC0E230A0E0FA07B7
:1003620079F4A0916002A13049F4E9D09698C09A3C
:10037200A881B98121DFEAD0229601C0EBD02AC040
:10038200E330A0E0FA0761F4A0916002A13031F4F9
:10039200C198C098949A26DFD9D001C0DBD01AC088
:1003A200E430A0E0FA07B1F4A0916002A13051F468
:1003B200C6D0C09AA881B981FFDE949A13DFC6D055
:1003C200229608C0C198C098959894989698E0E0B3
:1003D200E0936502AAE0B0E00E94BF02E0916702EA
:1003E200E093680298CFFFCFAA93E5B3EF70AE2FE8
:1003F200E881E07FEA2BE5BB8DE08A95F1F7AA9AC6
:100402008DE08A95F1F7AA988DE08A95F1F774C08C
:10041200AA93A881E9DFE881E295E883A881E4DF75
:1004220085E88A95F1F768C0AA93E881F0E0E75978
:10043200FD4FE081A981AE0FEBDF59804880229603
:100442000895A2E08FD0ACE0E3DFA1E08BD0E0E042
:100452004E2E5E2E0895AA93A881AA3011F0571449
:1004620048F0E0E0EA934394A42DDEDFA881AA30AD
:1004720009F442C05394A89AA881CADFA8983CC044
:10048200BA93AA931A93E981FA813196E983FA839E
:100492003197E4911E2FE03019F0A12FDCDFF3CF6A
:1004A200188123960895AA93E4B3E06FE4BBA29A5D
:1004B200A09AA19AAA98A898A9987880E881E05869
:1004C200E0936B02E881E054E0936C02A4E1B0E0B7
:1004D2000E94BF024CD04BD04AD0A0E285DF88EC0C
:1004E20090E00197F1F7A8E293DFA4E091DFA5E89D
:1004F2008FDFA6E08DDFA5DF21960895E0E0EA9385
:10050200A0E092CFBDDFE0E0EA93A1E08DCFA3E7C8
:10051200B0E00E94BF02959AE1E00895AA93EA939F
:10052200EFB7EA93E09160020895959AAAE0B0E0ED
:100532000E94BF029598E0E0E09366020895229738
:10054200A0E00E943C01E883F9830895A4E6B0E0AC
:100552000C94BF02C198C09895989698E0E0E093F9
:100562006502089555DFA3E0B0E00C94BF02A0E35A
:100572003BDF88EC90E00197F1F70895109639F08F
:10058200A89580ED97E00197F1F71197C9F70895C3
:00000001FF
