:060000000C94BC000C94FE
:10000600E9000C9405010C9400000C9400000C947B
:1000160000000C9400000C9400000C9400000C945A
:1000260000000C9400000C9400000C9400000C944A
:1000360000000C9400000C9400000C9400000C943A
:1000460000000C9400000C9400000C940000102793
:10005600E80364000A00010000100001100001001E
:1000660050617373576F726457656C636F6D65008B
:10007600506C61636520796F7572206361726400EC
:10008600202020002E2020002E2E20002E2E2E0096
:100096004572726F723A004E6F204361726400546B
:1000A600696D656F757400436F6D6D204572726F73
:1000B600720041757468204572726F7200556E6BDE
:1000C6006E6F776E20457272004461746120666FB0
:1000D600756E64003E526561642026206368656320
:1000E6006B003E57726974652070617373776F7227
:1000F6006400456D70747920626C6F636B003E44DA
:100106006F206E6F7468696E670057726974652038
:100116004F4B004D617463680050617373776F7263
:1001260064204F4B00416363657373206772616E91
:100136007465640050617373776F7264204E470074
:1001460054727920616761696E005772697465201F
:10015600646F6E650000FFFFFFFFFFFF80C00800B1
:1001660060026600060071025C010200770262010D
:100176000000F894EE27ECBBF1E0FBBFEBBFE5BF58
:100186008DE0A2E0BB27ED938A95E9F780E098E041
:10019600A0E6ED930197E9F7E4E6F1E08591959104
:1001A600009761F0A591B59105901590BF01F001FA
:1001B60005900D920197E1F7FB01F0CFEFE5EDBF5A
:1001C600E8E0EEBFC0E6D2E00C94E0010E9426070C
:1001D60051F40E9432073196E170F070E0936902A3
:1001E600F0936A020EC00E94370759F4E0916B0241
:1001F600F0916C023196E170F070E0936B02F0932F
:100206006C0221C00E94260761F40E9432073097D3
:1002160021F4E1E0E0936D0203C0E1E0E0936E02B9
:1002260012C00E94370779F4A0916B02B0916C025C
:10023600119721F4E1E0E0936E0205C0E0E0E0935F
:100246006F02E0937002E991EFBFF991E991B991DC
:10025600A99118950E943D07AEE6B0E00E944407BA
:10026600A6E7B0E00E94AB060895AA931A93E98127
:10027600F0E0A3E0B0E00E940F081E2FEDE0EA9345
:10028600A1E00E947B06103019F4A6E8B0E00CC08D
:10029600113019F4AAE8B0E007C0123019F4AEE83C
:1002A600B0E002C0A2E9B0E00E94AB0618810C944F
:1002B6008606AA930E943D07A6E9B0E00E9444077D
:1002C600A881A13019F4ADE9B0E014C0A881A2302C
:1002D60019F4A5EAB0E00EC0A881A33019F4ADEA7E
:1002E600B0E008C0A881A63019F4A8EBB0E002C0BF
:1002F600A3ECB0E00E94AB0621960895AA931A9348
:1003060010E0103150F40E944B07E981EA1719F00A
:10031600E0E00C94A5051F5FF4CFE1E00C94A50581
:10032600BA93AA93E881F981FA93EA93A0E0E6DF0B
:10033600E03051F4E881F981FA93EA93AFEFDEDF1A
:10034600E03011F4E0E001C0E1E00C9486060E9482
:1003560088060E943207309749F40E945207AFEC94
:10036600B0E00E944407AAEDB0E008C00E94520720
:10037600ABEDB0E00E944407A8EEB0E00E94AB06E9
:1003860008950E948806E0916B02F0916C02309706
:1003960049F40E945207A8EFB0E00E944407A4E087
:1003A600B1E008C00E945207A5E0B1E00E944407F0
:1003B600A8EEB0E00E94AB060895E0E0EABBEBBB16
:1003C600E2EBE7BBE0E0E8BBE4BBE5BBE0E6E1BBB4
:1003D600E0E0E2BBE3BFEFBDEEBDE5BDEBB7E06C31
:1003E600EBBFEAE0E5BFE0ECEABFE0E0EAB9E6B978
:1003F600E0E8E8B9E3E5EDB9E0E0EEB9A0E10E9496
:10040600BE06789411D2EF972197E0E0E0936F0251
:10041600E0937002E0936902E0936A02E0936B0254
:10042600E0936C02E0936D02E0936E0213DF219776
:10043600E0E0E883E6E20E94570761F0E2E50E9409
:10044600570741F0A881AF5FA883A1500EDF0E9435
:100456005F07F0CF2196DE01D69679D2EDABE0307C
:1004660021F4A3E00E946307CECFFE01F696FA932D
:10047600EA93EFA9EA93DE01D7960CD3E883E0303E
:1004860021F0A8810E946307BECFE8E0EA93DE016F
:10049600D79623D3E03021F0A6E00E946C07B3CFB5
:1004A600E8E0EA93DE0193960E94B005E03021F081
:1004B600A3E00E946C07A7CFDE01929631DFE03001
:1004C60009F463C02297E0E0E883E983E2E0F0E024
:1004D600E0936F02F093700254DF0E94370709F031
:1004E60053C0E0916E02E03009F447C0E0E0EB83D0
:1004F600AB81A03140F40E947707E0E0EC93EB81FA
:10050600EF5FEB83F5CFE0E0EB83AB81A83040F4FF
:100516000E9477070E947E07EB81EF5FEB83F5CFA2
:100526000E948507A9F4E8E0EA93DE01559615D303
:10053600E03071F4FE017496FA93EA93FE01369662
:10054600FA93EA93A0E1B0E00E94EC06E03009F0ED
:100556000BC00E948D07A0E1B1E00E944407A9E10B
:10056600B1E00E94940706C00E949907A3E0A1DEAD
:100576009598C1980E949C0707C00E94A50720F481
:1005860000DF0E945F07A9CF7DC02297E0E0E883E5
:10059600E983E1E0F0E0E0936F02F0937002D7DECA
:1005A600A0916F02B0917002119709F06BC0E091B3
:1005B6006D02E03079F1FE01B496FA93EA93E0E633
:1005C600F2E0FA93EA93A8E00E940507E03059F4B6
:1005D6000E948D07AFE1B1E00E944407ABE2B1E0B3
:1005E6000E9494070EC00E9499070E943D07AAE345
:1005F600B1E00E944407A6E4B1E00E94AB069598DC
:10060600C198E0E0E0936D02A0D2A4E8B3E00E94B6
:10061600010838C0E0916E02E03069F1E0E0EB835A
:10062600AB81A03140F40E947707E0E0EC93EB81C8
:10063600EF5FEB83F5CFE0E0EB83AB81A83040F4CE
:100646000E9477070E947E07EB81EF5FEB83F5CF71
:100656000E94850739F40E948D07A0E5B1E00E944B
:10066600940706C00E949907A3E023DE9598C198D7
:100676000E949C0707C00E94A50720F468DE0E941E
:100686005F078ECF2296EF962196BDCEFFCFC498F8
:100696000895C49A0895AA93FADFE981EE0FEE77DA
:1006A600AE2F0E941E07A8810E941E07F2DF0C943F
:1006B6008606AA931A93EBDFE981EE0FEE77E068E0
:1006C600AE2F0E941E07A0E00E941E071E2FE1DF2C
:1006D600E12F18810C9486060E94B207A981EA2BA5
:1006E600AE2FD9DF0C9486060E94B207AE2FE981A1
:1006F600E095EA23AE2FCFDF0C9486060E94B8075A
:1007060010E0EB811E1740F4E9E0EA93AD81BE816B
:100716000E94C5071F5FF5CFE1E0EA93A3E0BBDFC8
:1007260010E01F3F30F4A5E0C4DFE47011F41F5F52
:10073600F8CFA2E2BEDFA981BA81EC93A1E2B9DFCC
:10074600A981BA811196EC93188126960895BA93D9
:10075600AA930E941908E2E0EA93A7EF9CDFE4E07F
:10076600EA93A0E8C1DFEAE0EA93A0E8B5DFE1E0BA
:100776000E94CB0710E0E8851E1740F4E9E0EA93F3
:10078600AA85BB850E94C5071F5FF5CFE1E0EA9306
:10079600ACE081DFEDE0EA93A0E89EDF18ECA4E090
:1007A60088DF0E2F115011F0E07309F001C0F7CF6A
:1007B600EDE0EA93A0E898DF103011F4E2E08DC096
:1007C600A6E077DFEB7111F0E3E087C0AAE071DF06
:1007D6000E2FACE06EDFE7703E2FEC81FD81309787
:1007E60081F0303039F0E02FE150EE0FEE0FEE0FD2
:1007F600E30F04C0E02FEE0FEE0FEE0FAC81BD81CC
:10080600EC9310E0101778F4E12FAE81BF81F0E091
:10081600EA0FFB1FFF93EF93A9E04BDFAF91BF9168
:10082600EC931F5FEFCF58C0BC9AC49AE1E0EA93FD
:10083600AFE031DFA2E3B0E00E940108EAE2EA930A
:10084600ADE829DFEBE2EA93AEE325DFEDE2EA93DA
:10085600AEE121DFECE20E94CB07E5E1EA93A0E4FA
:100866001ADFE1E1EA93ADE316DFA4E122DFE370EC
:1008760021F4E4E1EA93A3E02FDF0895BA93AA9363
:1008860024970E9419081A8500E0EDE0EA93A7E094
:1008960002DFEDB7FEB7FA93EA931F93E1E00E94F9
:1008A600CF07ADB7BEB70F9352DF0F911F913E2F03
:1008B600EDE00E94CB07303011F0E1E00EC00031D0
:1008C60011F0E1E00AC0EC81A885B985EC93ED81D1
:1008D600A885B9851196EC93E0E00E941E082B9638
:1008E6000895BA93AA932C970E94190810E0EA89F2
:1008F600EE87E0E2EF87EDE00E94CB07EEE0EA93B9
:10090600A0E8C9DEFE013E96FA93EA93E2E00E9471
:10091600CF07ADB7BEB71F931ADF1F913E2F3030FA
:1009260009F011C0183211F0E3E00DC000E0053007
:1009360048F4E02FA889B9890E94D5070E94DC07F0
:100946000F5FF5CFE0E00E941E0863960895BA9304
:10095600AA9325971A930A93E3E9EA93DE0113967D
:10096600C0DFE03021F0E0E019810881B4C0AA813F
:10097600A83889F400E0043050F4E02FAF81B88540
:100986000E94D50731960E94E4070F5FF4CFE4E09A
:1009960019810881A0C0EB81AA81EA27AC81EA27E8
:1009A600AD81EA271E2FEE81E11721F0E0E01981E3
:1009B600088191C000E0043048F4E02FAF81B8858B
:1009C6000E94D5070E94E4070F5FF5CFE4E0198186
:1009D600088181C0BA93AA93A881B981AC91E881B4
:1009E600F981E181AE27E881F981E281AE27E881CC
:1009F600F981E381EA2787C1BA93AA932F970E94C8
:100A0600190810E0EDE00E94CB07AD89BE89E2DF50
:100A16000E2FEF89EA87E0E7EB87AD89BE89EC9177
:100A2600EC87ED89FE89E181ED87ED89FE89E2811A
:100A3600EE87ED89FE89E381EF87FE0170960083DC
:100A4600FE013A96FA93EA93E7E0EA93DE011B96F3
:100A560055DEE885E98BE985EA8BFE013A96FA933D
:100A6600EA93E9E00E94CF07ADB7BEB71F936FDEEA
:100A76001F913E2F303009F009C0183111F0E3E024
:100A860005C0EC81AB89BC89EC93E0E00E941E08AE
:100A960068960895BA93AA932497AE81A430D1F4A8
:100AA600AF81B885EC91E883EF81F885E181E98330
:100AB600EF81F885E281EA83EF81F885E381EB83B4
:100AC600E3E9EA93FE013196FA93EA93AF81B8859A
:100AD60093DF01C0E3E0299608950E94B807E9E094
:100AE600EA93A0E6D8DDE9E0EA93AC81D4DD10E034
:100AF600163050F4E9E0EA93E12FF0E0EF58FD4FAD
:100B0600A081C9DD1F5FF4CF10E0143038F4E9E0AE
:100B1600EA930E944B07BFDD1F5FF7CFE1E0EA9340
:100B2600AEE0B9DD10E0183C60F4A8E0C2DDE87084
:100B360011F0E0E007C0A1E0B0E00E9401081F5FED
:100B4600F2CFE6E0188124960895E8E0EA93A8E05B
:100B5600CBDDE1E00E94CB070895BA93AA93A6974E
:100B66000E94190810E0E0E3EEA3ECA5EFA3FE0156
:100B7600B696FA93EA93E2E0EA93DE019796BEDD33
:100B8600ECA1E8A7EDA1E9A7FE01B696FA93EA93D0
:100B9600E4E00E94CF07ADB7BEB71F93D8DD1F9123
:100BA6003E2F303009F011C0103810F4E3E00DC0CC
:100BB60000E0003148F4E02FAAA5BBA50E94D507A6
:100BC6000E94DC070F5FF5CFE0E00E941E08AD969D
:100BD6000895BA93AA93A0970E94190810E0E0EA34
:100BE600E8A3EEA1E9A3FE01B096FA93EA93E2E048
:100BF6000E94EC07EAA3EF8DEBA3FE01B096FA93F1
:100C0600EA93E4E0EA93FE017996FA93EA93ADB7A4
:100C1600BEB71F939CDD1F913E2F303009F042C0B6
:100C2600143021F4EE89EF70EA3011F0E3E03AC0B7
:100C360000E0003188F4E02FF0E0DE011496EA0FC0
:100C4600FB1F0F01ACA1BDA1EE27A00FBE1FEC91AB
:100C5600D001EC930F5FEDCFECA1FDA1FA93EA93DF
:100C6600E0E10E94EC07EC8BEF8DED8BFE013496F4
:100C7600FA93EA93E2E1EA93FE017996FA93EA930C
:100C8600ADB7BEB71F9363DD1F913E2F303009F01D
:100C960009C0143021F4EE89EF70EA3011F0E3E078
:100CA60001C0E0E00E941E08A7960895AA93E5B346
:100CB600EF70AE2FE881E07FEA2BE5BB8DE08A95E9
:100CC600F1F7AA9A8DE08A95F1F7AA988DE08A95B0
:100CD600F1F70C942407AA93A881E8DFE881E2954E
:100CE600E883A881E3DF85E88A95F1F70C94240769
:100CF600AA93E881F0E0E958FD4FE081A981AE0FA3
:100D0600EADF5980488022960895A2E00E94F30700
:100D1600ACE0E1DFA1E00E94F307E0E04E2E5E2E9C
:100D26000895AA93A881AA3011F0571450F0E0E074
:100D3600EA934394A42DDCDFA881AA3011F40C9425
:100D460024075394A89AA881C6DFA8980C94240770
:100D5600BA93AA931A93E981FA813196E983FA83C1
:100D66003197E4911E2FE03019F0A12FDADFF3CF8F
:100D7600188123960895AA93E4B3E06FE4BBA29A80
:100D8600A09AA19AAA98A898A9987880E881E0588C
:100D9600E0937902E881E054E0937A02A4E1B0E0BE
:100DA6000E9401080E94F9070E94F9070E94F907AC
:100DB600A0E27CDF88EC90E00197F1F7A8E28BDFF8
:100DC600A4E089DFA5E887DFA6E085DF9EDF0C9437
:100DD6002407BA93AA936627772789919991E9916F
:100DE600F991A991B991009629F001976D917191A8
:100DF6006717C9F3671B10F4EFEF0895E0E009F0F9
:100E0600E3950895AA93662777278991E991F99141
:100E1600A991B991882349F08A956D9171916717C7
:100E260021F46623B9F7EE270895671BE1F3E1E0A5
:100E360008F4E2500895AA93E881EFB9779BFECFB4
:100E4600EFB121960895AA93BA93EA93FA93EFB76E
:100E5600EA93A0916F02B091700211970895E09104
:100E66006902F0916A020895A0916F02B091700232
:100E7600129708950E948806E0E0EA93A0E00C9499
:100E86007B060E94AB06E0E0EA93A1E00C947B06A9
:100E9600AA81BB81EE27A10FBE1FAC910895E0E0A9
:100EA600EA93A0E00C947B06EA93DE01D4960E94B6
:100EB6004104E983E0300895A8E7B0E00C94010806
:100EC6000E945C01A4EFB1E00E940108EF96219612
:100ED60008950E945C01ACEBB2E00E9401080E94FA
:100EE600A805EF9621960895EB81F0E0DE011496B1
:100EF600AE0FBF1F0895EB81F0E0E05AFD4FE08191
:100F0600EC930895E8E0EA93DE0115960E94EC055D
:100F1600E0300895969A959AA8ECB0E00E940108F0
:100F2600A9CF0E94AB06959896980895C19A959A6E
:100F3600C3CFE0E0E0936E020E94A805A4E8B3E008
:100F46000C940108A6E9B0E00E940108E881F98145
:100F56003196E883F983A881B981DD970895AA932C
:100F6600E981EA93AA810C945C03BA93AA931A9333
:100F7600E1E0EA93A0E00E944E03EAE0EA93A0E8EB
:100F86000C946F03EE27A10FBE1FAC910C944E0379
:100F9600EA93A0E00C944E03EA93FE013796FA9387
:100FA600EA930895F0E0EA0FFB1F0F01E02FF0E04F
:100FB6000895DE011496AE0FBF1FEC91D001EC939D
:100FC6000895DE011296AE0FBF1FEC91D001EC938F
:100FD6000895EA93DE0191960E948103EE8D0895AD
:100FE6000E946E06A3E0B0E00C940108A0E30E9404
:100FF600590688EC90E00197F1F70895109639F0BC
:10100600A89580ED97E00197F1F71197C9F7089534
:10101600F195E195F0400895E894F7FF02C0F8DFF6
:101026006894EA23FB230EF4F3DF08953A932A9398
:101036001A930A9308953B812A811981088108959C
:00000001FF
