:0A0000000C94C2000C94EF000C9465
:10000A000B010C9400000C9400000C9400000C945A
:10001A0000000C9400000C9400000C9400000C9456
:10002A0000000C9400000C9400000C9400000C9446
:10003A0000000C9400000C9400000C9400000C9436
:10004A0000000C9400000C9400001027E8036400E0
:10005A000A000100001000011000010050617373D2
:10006A00576F726457656C636F6D6500506C61639E
:10007A006520796F75722063617264002020200008
:10008A002E2020002E2E20002E2E2E004572726F5A
:10009A00723A004E6F20436172640054696D656F55
:1000AA00757400436F6D6D204572726F72004175F1
:1000BA007468204572726F7200556E6B6E6F776E40
:1000CA0020457272004461746120666F756E640027
:1000DA003E52656164202620636865636B003E5763
:1000EA00726974652070617373776F726400456D0D
:1000FA0070747920626C6F636B003E446F206E6F80
:10010A007468696E6700436172642072656D6F7608
:10011A006564005772697465204F4B004D617463C2
:10012A00680050617373776F7264204F4B004163AC
:10013A0063657373206772616E74656400506173DE
:10014A0073776F7264204E47005472792061676139
:10015A00696E00577269746520646F6E6500FFFFEF
:10016A00FFFFFFFF80C00800600266000600710200
:10017A006801020077026E010000F894EE27ECBBDA
:10018A00F1E0FBBFEBBFE5BF8DE0A2E0BB27ED933B
:10019A008A95E9F780E098E0A0E6ED930197E9F700
:1001AA00E0E7F1E085919591009761F0A591B5910D
:1001BA0005901590BF01F00105900D920197E1F7A6
:1001CA00FB01F0CFEFE5EDBFE8E0EEBFC0E6D2E01D
:1001DA000C941A020E94870751F40E9493073196E1
:1001EA00E170F070E0936902F0936A020EC00E9417
:1001FA00980759F4E0916B02F0916C023196E17024
:10020A00F070E0936B02F0936C0221C00E948707A2
:10021A0061F40E949307309721F4E1E0E0936D02C4
:10022A0003C0E1E0E0936E0212C00E94980779F4DD
:10023A00A0916B02B0916C02119721F4E1E0E09376
:10024A006E0205C0E0E0E0936F02E0937002E9916C
:10025A00EFBFF991E991B991A99118950E949E076A
:10026A00AEE6B0E00E94A507A6E7B0E00E940C0740
:10027A000895AA931A93E981F0E0A3E0B0E00E94FE
:10028A00A3081E2FEDE0EA93A1E00E94DC061030DD
:10029A0019F4A6E8B0E00CC0113019F4AAE8B0E0ED
:1002AA0007C0123019F4AEE8B0E002C0A2E9B0E02B
:1002BA000E940C07188122960895AA930E949E070D
:1002CA00A6E9B0E00E94A507A881A13019F4ADE91A
:1002DA00B0E014C0A881A23019F4A5EAB0E00EC0BB
:1002EA00A881A33019F4ADEAB0E008C0A881A6300D
:1002FA0019F4A8EBB0E002C0A3ECB0E00E940C072E
:10030A0021960895AA931A9310E0103150F40E948E
:10031A00AC07E981EA1719F0E0E00C9403061F5FC5
:10032A00F4CFE1E00C940306BA93AA93E881F98129
:10033A00FA93EA93A0E0E6DFE03051F4E881F9812C
:10034A00FA93EA93AFEFDEDFE03011F4E0E001C0A8
:10035A00E1E00C94E70622971A93E6E20E94B307BB
:10036A00103019F4E1E00C941C07E2E50E94B3078F
:10037A00A12FE0E00E9480080C941C07AA931A930C
:10038A000A9310E000E0EA810E1750F4E4DFE0304F
:10039A0009F01F5FA5E0B0E00E9472080F5FF3CF7B
:1003AA00AA81B0E0E2E0F0E00E949E083196A12F17
:1003BA00B0E00E948508198108810C941D070E94EB
:1003CA00E9060E949307309749F40E94BA07AFECF6
:1003DA00B0E00E94A507AAEDB0E008C00E94BA07E3
:1003EA00ABEDB0E00E94A507A8EEB0E00E940C07B2
:1003FA0008950E94E906E0916B02F0916C02309731
:10040A0049F40E94BA07A8EFB0E00E94A507A4E049
:10041A00B1E008C00E94BA07A5E0B1E00E94A507B2
:10042A00A8EEB0E00E940C070895E0E0EABBEBBB3F
:10043A00E2EBE7BBE0E0E8BBE4BBE5BBE0E6E1BB3F
:10044A00E0E0E2BBE3BFEFBDEEBDE5BDEBB7E06CBC
:10045A00EBBFEAE0E5BFE0ECEABFE0E0EAB9E6B903
:10046A00E0E8E8B9E3E5EDB9E0E0EEB9A0E10E9421
:10047A001F07789434D2EF972197E0E0E0936F0258
:10048A00E0937002E0936902E0936A02E0936B02E0
:10049A00E0936C02E0936D02E0936E02DFDE219737
:1004AA00E0E0E883E6E20E94BF0761F0E2E50E942D
:1004BA00BF0741F0A881AF5FA883A150DADE0E948E
:1004CA00C707F0CF2196DE01D6969CD2EDABE0307D
:1004DA0021F4A3E00E94CB07CECFFE01F696FA9351
:1004EA00EA93EFA9EA93DE01D79630D3E883E030A6
:1004FA0021F0A8810E94CB07BECFE8E0EA93DE0193
:10050A00D79647D3E03021F0A6E00E94D407B3CFB4
:10051A00E8E0EA93DE0193960E940E06E03021F0AD
:10052A00A3E00E94D407A7CFDE019296FDDEE03059
:10053A0009F474C00E94DF07E2E0F0E0E0936F0282
:10054A00F093700256DF0E94980709F066C0A4E093
:10055A0015DFE03069F4A881AF5FA883A33038F0D3
:10056A000E9406060E949E070E94E50756C002C026
:10057A00E0E0E883E0916E02E03009F445C0E0E093
:10058A00EC83AC81A03140F40E94ED07E0E0EC93EB
:10059A00EC81EF5FEC83F5CFE0E0EC83AC81A8302F
:1005AA0040F40E94ED070E94F407EC81EF5FEC83B0
:1005BA00F5CF0E94FB0799F4E8E0EA93DE0156962C
:1005CA0028D3E03061F4FE017596FA93EA930E940B
:1005DA000308A0E1B0E00E944D07E03009F00BC02B
:1005EA000E940808ADE1B1E00E94A507A6E2B1E0C9
:1005FA000E940F0806C00E941408A3E05EDE9598C8
:10060A00C1980E94170809C00E94C7070E942008C3
:10061A0010F0F7D202C0EDDE96CF8FC00E94DF073E
:10062A00E1E0F0E0E0936F02F0937002C8DEA0917F
:10063A006F02B0917002119709F07FC0A4E09EDEAC
:10064A00E03061F4A881AF5FA883A33030F0D9D23B
:10065A000E949E070E94E50770C002C0E0E0E8839E
:10066A00E0916D02E03079F1FE01B596FA93EA93D2
:10067A00E0E6F2E0FA93EA93A8E00E946607E03027
:10068A0059F40E940808ACE2B1E00E94A507A8E369
:10069A00B1E00E940F080EC00E9414080E949E0733
:1006AA00A7E4B1E00E94A507A3E5B1E00E940C0708
:1006BA009598C198E0E0E0936D02A3D2A4E8B3E074
:1006CA000E9472083AC0E0916E02E03069F1E0E0FF
:1006DA00EC83AC81A03140F40E94ED07E0E0EC939A
:1006EA00EC81EF5FEC83F5CFE0E0EC83AC81A830DE
:1006FA0040F40E94ED070E94F407EC81EF5FEC835F
:10070A00F5CF0E94FB0739F40E940808ADE5B1E075
:10071A000E940F0806C00E941408A3E0CEDD959837
:10072A00C1980E94170809C00E94C7070E942008A2
:10073A0010F067D202C043DE7ACF2396EF96219655
:10074A009ACEFFCFC4980895C49A0895AA93FADF5F
:10075A00E981EE0FEE77AE2F0E947F07A8810E94F3
:10076A007F07F2DF0C94E706AA931A93EBDFE9817D
:10077A00EE0FEE77E068AE2F0E947F07A0E00E949E
:10078A007F071E2FE1DFE12F18810C94E7060E94F4
:10079A002B08A981EA2BAE2FD9DF0C94E7060E9419
:1007AA002B08AE2FE981E095EA23AE2FCFDF0C9418
:1007BA00E7060E94310810E0EB811E1740F4E9E0D9
:1007CA00EA93AD81BE810E943E081F5FF5CFE1E04A
:1007DA00EA93A3E0BBDF10E01F3F30F4A5E0C4DFDB
:1007EA00E47011F41F5FF8CFA2E2BEDFA981BA81DB
:1007FA00EC93A1E2B9DFA981BA811196EC93188131
:10080A0026960895BA93AA930E94BB08E2E0EA9357
:10081A00A7EF9CDFE4E0EA93A0E8C1DFEAE0EA930D
:10082A00A0E8B5DFE1E00E94440810E0E8851E1761
:10083A0040F4E9E0EA93AA85BB850E943E081F5F5F
:10084A00F5CFE1E0EA93ACE081DFEDE0EA93A0E8DE
:10085A009EDF18ECA4E088DF0E2F115011F0E07330
:10086A0009F001C0F7CFEDE0EA93A0E898DF103075
:10087A0011F4E2E08EC0A6E077DFEB7111F0E3E05D
:10088A0088C0AAE071DF0E2FACE06EDFE7703E2F62
:10089A00EC81FD81309781F0303039F0E02FE15062
:1008AA00EE0FEE0FEE0FE30F04C0E02FEE0FEE0F88
:1008BA00EE0FAC81BD81EC9310E0101778F4E12FB4
:1008CA00AE81BF81F0E0EA0FFB1FFF93EF93A9E02F
:1008DA004BDFAF91BF91EC931F5FEFCF59C0BC9A2A
:1008EA00C49AE1E0EA93AFE031DFA2E3B0E00E940C
:1008FA007208EAE2EA93ADE829DFEBE2EA93AEE3B3
:10090A0025DFEDE2EA93AEE121DFECE20E94440842
:10091A00E5E1EA93A0E41ADFE1E1EA93ADE316DF49
:10092A00A4E122DFE37021F4E4E1EA93A3E02FDFFC
:10093A000895BA93AA9324970E94BB081A8500E0E7
:10094A00EDE0EA93A7E002DFEDB7FEB7FA93EA9388
:10095A001F93E1E0EA930E940308ADB7BEB70F9375
:10096A0051DF0F911F913E2FEDE00E944408303075
:10097A0011F0E1E00EC0003111F0E1E00AC0EC81B3
:10098A00A885B985EC93ED81A885B9851196EC9374
:10099A00E0E00E94C0082B960895BA93AA932C9778
:1009AA000E94BB0810E0EA89EE87E0E2EF87EDE0FB
:1009BA000E944408EEE0EA93A0E8C8DEFE013E96F3
:1009CA000E9448080E940308ADB7BEB71F931ADFFA
:1009DA001F913E2F303009F011C0183211F0E3E0B8
:1009EA000DC000E0053048F4E02FA889B9890E94BB
:1009FA004D080E9454080F5FF5CFE0E00E94C0083E
:100A0A0063960895BA93AA9325971A930A93E3E9EA
:100A1A00EA93DE011396C1DFE03021F0E0E01981AC
:100A2A000881B5C0AA81A83889F400E0043050F4DE
:100A3A00E02FAF81B8850E944D0831960E945C086C
:100A4A000F5FF4CFE4E019810881A1C0EB81AA818C
:100A5A00EA27AC81EA27AD81EA271E2FEE81E1174A
:100A6A0021F0E0E01981088192C000E0043048F4E6
:100A7A00E02FAF81B8850E944D080E945C080F5F85
:100A8A00F5CFE4E01981088182C0BA93AA93A881BC
:100A9A00B981AC91E881F981E181AE27E881F981D8
:100AAA00E281AE27E881F981E381EA278BC1BA9313
:100ABA00AA932F970E94BB0810E0EDE00E94440819
:100ACA00AD89BE89E2DF0E2FEF89EA87E0E7EB877F
:100ADA00AD89BE89EC91EC87ED89FE89E181ED87CC
:100AEA00ED89FE89E281EE87ED89FE89E381EF8750
:100AFA00FE0170960083FE013A96FA93EA93E7E0C4
:100B0A00EA93DE011B9655DEE885E98BE985EA8BD7
:100B1A00FE013A96FA93EA93E9E0EA930E940308FF
:100B2A00ADB7BEB71F936EDE1F913E2F303009F06E
:100B3A0009C0183111F0E3E005C0EC81AB89BC892A
:100B4A00EC93E0E00E94C00868960895BA93AA93CD
:100B5A002497AE81A430D1F4AF81B885EC91E883B3
:100B6A00EF81F885E181E983EF81F885E281EA8303
:100B7A00EF81F885E381EB83E3E9EA93FE0131969D
:100B8A00FA93EA93AF81B88592DF01C0E3E0299630
:100B9A0008950E943108E9E0EA93A0E6D7DDE9E08A
:100BAA00EA93AC81D3DD10E0163050F4E9E0EA9321
:100BBA00E12FF0E0EF58FD4FA081C8DD1F5FF4CFB1
:100BCA0010E0143038F4E9E0EA930E94AC07BEDD85
:100BDA001F5FF7CFE1E0EA93AEE0B8DD10E0183C22
:100BEA0060F4A8E0C1DDE87011F0E0E007C0A1E020
:100BFA00B0E00E9472081F5FF2CFE6E018812496E7
:100C0A000895E8E0EA93A8E0CADDE1E00E9444081A
:100C1A000895BA93AA93A6970E94BB0810E0E0E34E
:100C2A00EEA3ECA5EFA3FE01B6960E944808DE01EA
:100C3A009796BFDDECA1E8A7EDA1E9A7FE01B6965C
:100C4A00FA93EA93E4E0EA930E940308ADB7BEB7C9
:100C5A001F93D8DD1F913E2F303009F011C0103894
:100C6A0010F4E3E00DC000E0003148F4E02FAAA53B
:100C7A00BBA50E944D080E9454080F5FF5CFE0E023
:100C8A000E94C008AD960895BA93AA93A0970E94AD
:100C9A00BB0810E0E0EAE8A3EEA1E9A3FE01B096E2
:100CAA000E944808DE01919684DDEE8DEAA3EF8D5D
:100CBA00EBA3FE01B096FA93EA93E4E0EA93FE010D
:100CCA007996FA93EA93ADB7BEB71F939BDD1F914E
:100CDA003E2F303009F045C0143021F4EE89EF7010
:100CEA00EA3011F0E3E03DC000E0003188F4E02F83
:100CFA00F0E0DE011496EA0FFB1F0F01ACA1BDA1C3
:100D0A00EE27A00FBE1FEC91D001EC930F5FEDCF41
:100D1A00ECA1FDA1FA93EA93E0E1EA93DE01919650
:100D2A0048DDEE8DEC8BEF8DED8BFE013496FA9358
:100D3A00EA93E2E1EA93FE017996FA93EA93ADB770
:100D4A00BEB71F935FDD1F913E2F303009F009C0F7
:100D5A00143021F4EE89EF70EA3011F0E3E001C0BB
:100D6A00E0E00E94C008A7960895AA93E5B3EF7041
:100D7A00AE2FE881E07FEA2BE5BB8DE08A95F1F79B
:100D8A00AA9A8DE08A95F1F7AA988DE08A95F1F7EB
:100D9A000C948507AA93A881E8DFE881E295E883A5
:100DAA00A881E3DF85E88A95F1F70C948507AA9371
:100DBA00E881F0E0E958FD4FE081A981AE0FEADF52
:100DCA005980488022960895A2E00E946408ACE007
:100DDA00E1DFA1E00E946408E0E04E2E5E2E089555
:100DEA00AA93A881AA3011F0571450F0E0E0EA93D0
:100DFA004394A42DDCDFA881AA3011F40C94850752
:100E0A005394A89AA881C6DFA8980C948507BA9328
:100E1A00AA931A93E981FA813196E983FA83319781
:100E2A00E4911E2FE03019F0A12FDADFF3CF1881F9
:100E3A0023960895AA93E4B3E06FE4BBA29AA09A1A
:100E4A00A19AAA98A898A9987880E881E058E0938E
:100E5A007902E881E054E0937A02A4E1B0E00E94CA
:100E6A0072080E946A080E946A080E946A08A0E240
:100E7A007CDF88EC90E00197F1F7A8E28BDFA4E031
:100E8A0089DFA5E887DFA6E085DF9EDF0C9485076A
:100E9A00BA93AA936627772789919991E991F9914B
:100EAA00A991B991009629F001976D9171916717EF
:100EBA00C9F3671B10F4EFEF0895E0E009F0E3953A
:100ECA000895AA93662777278991E991F991A991BB
:100EDA00B991882349F08A956D917191671721F428
:100EEA006623B9F7EE270895671BE1F3E1E008F4FA
:100EFA00E2500895AA93E881EFB9779BFECFEFB14C
:100F0A0021960895AA93BA93EA93FA93EFB7EA93CC
:100F1A00A0916F02B091700211970895E091690251
:100F2A00F0916A020895A0916F02B091700212972F
:100F3A0008950E94E906E0E0EA93A0E00C94DC063A
:100F4A000E940C07E0E0EA93A1E00C94DC06AA8177
:100F5A00BB81EE27A10FBE1FAC910895EA93DE0173
:100F6A0012960E949E041E2F0895E0E0EA93A0E0E4
:100F7A000C94DC06EA93DE01D4960E949E04E9836F
:100F8A00E0300895A8E7B0E00C9472080E9462016C
:100F9A00A4EFB1E00E947208EF96219608950E948C
:100FAA006201ACEBB2E00E9472080E940606EF965C
:100FBA00219608952397E0E0E883E983EA83089578
:100FCA00A0E1B1E00E940C07A0E9B1E00C9472081C
:100FDA00EC81F0E0DE011596AE0FBF1F0895EC819B
:100FEA00F0E0E05AFD4FE081EC930895E8E0EA93DF
:100FFA00DE0116960E944906E0300895FE013796F2
:10100A00FA93EA930895969A959AA8ECB0E00E940A
:10101A0072088FCF0E940C07959896980895C19AE6
:10102A00959AB0CFE0E0E0936E020E940606A4E82B
:10103A00B3E00C947208E981FA813196E983FA8364
:10104A00A981BA81A135E0E0BE070895AA93E98192
:10105A00EA93AA810C94B903BA93AA931A93E1E08A
:10106A00EA93A0E00E94AB03EAE0EA93A0E80C94BA
:10107A00CC03EE27A10FBE1FAC910C94AB03EA93ED
:10108A00A0E00C94AB03FA93EA93E2E0EA930895A2
:10109A00F0E0EA0FFB1F0F01E02FF0E00895DE01F8
:1010AA001496AE0FBF1FEC91D001EC930895DE01A8
:1010BA001296AE0FBF1FEC91D001EC9308950E94D7
:1010CA00CF06A3E0B0E00C947208A0E30E94BA062F
:1010DA0088EC90E00197F1F70895109639F0A895F9
:1010EA0080ED97E00197F1F71197C9F70895F19507
:1010FA00E195F0400895EA17E1E009F0EE27089536
:10110A00AE17BF07E1E00CF4EE270895002411247E
:10111A0090E1AA0FBB1F001C111C0E1A1F0A18F41B
:10112A000E0E1F1E01C0A1609A9599F7FD01D0010C
:10113A0008950ED0EBDF0EF4DADF0895E894F7FF96
:10114A0002C0D5DF6894EA23FB230EF4D0DF0895AA
:10115A00E894F7FF02C0CBDF6894B7FF06C0A095FA
:10116A00B095119600F8039400FA08953A932A93D9
:10117A001A930A9308953B812A8119810881089557
:00000001FF
