:040000000C94D0008C
:100004000C9400000C9400000C9400000C9400006C
:100014000C9400000C9400000C9400000C9400005C
:100024000C9400000C9400000C9400000C9400004C
:100034000C9400000C9400000C9400000C9400003C
:100044000C9400000C9400000C9400000C9400002C
:100054001027E80364000A000100001000011000EA
:10006400010000C637D532B7575CC2D87C4DD97071
:10007400C77310E6D2AA5EA13E5A14AF3061C970AC
:10008400DB2E642272B5BD65F4EC22BCD37235CD8F
:10009400AA411FA7F35314DE7E02D90FB55E251DB6
:1000A400297900EB66BA57BF2395D0E30D3D278924
:1000B4005CDE9D3BA700215B8982513AEB020CA5D3
:1000C40000497C844DB3CCD21B815D4876D57161E7
:1000D40021A986968338CF9D5B6DDC15BA3E7D954C
:1000E4003B2F7C2F2D5C52433532322053656C6696
:1000F4005465737400506C6561736520776169742D
:100104002E2E2E005665723A307825303258005320
:10011400656C66546573743A204641494C005365D6
:100124006C66546573743A205041535300436172B2
:100134006420646574656374656421005549443AB8
:10014400253032582530325825303258253032582F
:100154000055494420636F6E742E3A0053656172F2
:100164006368696E672063617264004E4F20434187
:100174005244202020202020200080C040006F0214
:1001840066004000AF02A6000F00600222010400D6
:10019400F102E6000200F7027E010000F894EE2767
:1001A400ECBBF1E0F5BFE5BF8DE0A2E0BB27ED932A
:1001B4008A95E9F780E098E0A0E6ED930197E9F7E6
:1001C400E0E8F1E085919591009761F0A591B591F2
:1001D40005901590BF01F00105900D920197E1F78C
:1001E400FB01F0CFEFE5EDBFE8E0EEBFC0E6D2E003
:1001F4000C941C03C4980895C49A0895AA93FADF32
:10020400E981EE0FEE77AE2F0E94D504A8810E94FB
:10021400D504F2DF0C946304AA931A93EBDFE9810B
:10022400EE0FEE77E068AE2F0E94D504A0E00E94A6
:10023400D5041E2FE1DFE12F18810C9463040E9482
:100244009E06A981EA2BAE2FD9DF0C9463040E9489
:100254009E06AE2FE981E095EA23AE2FCFDF0C9402
:100264006304E1E0EA93AFE0C9DFA2E3B0E00E94F7
:1002740025070895A4E1D0DFE37021F4E4E1EA93D3
:10028400A3E0DDDF0895EDDFEAE2EA93ADE8B6DF4F
:10029400EBE2EA93AEE3B2DFEDE2EA93AEE1AEDF86
:1002A400ECE20E94A406E5E1EA93A0E4A7DFE1E121
:1002B400EA93ADE3A3DFDEDF0895BA93AA93EF9741
:1002C40021970E944607A7E3A7DF1E2FCADFEAE0B3
:1002D400EA93A0E893DF00E0093128F4E9E00E9402
:1002E400A4060F5FF9CFE1E0EA93A1E087DFE6E33C
:1002F400EA93A9E083DFE9E00E94A406E1E0EA933F
:10030400A3E07CDF00E0083C58F4AAE085DF3E2F40
:10031400303431F0A1E0B0E00E9425070F5FF3CF45
:10032400303419F00E94A80640C000E0003468F49C
:100334000E94B006EA0FFB1FFF93EF93A9E06CDF66
:10034400AF91BF91EC930F5FF1CFE6E30E94A40657
:1003540088DF0E94A806113999F400E0003470F493
:100364000E94B006AE0FBF1FAC91E02FF0E0E15940
:10037400FD4FE081EA17C9F40F5FF0CFE1E016C04A
:10038400123999F400E0003470F40E94B006AE0F04
:10039400BF1FAC91E02FF0E0E155FD4FE081EA177B
:1003A40021F40F5FF0CFE1E001C0E0E00E944D07CF
:1003B400EF9627960895BA93AA930E944607E2E01F
:1003C400EA93A7EF1BDFE4E0EA93A0E840DFEAE06A
:1003D400EA93A0E834DFE1E00E94A40610E0E88597
:1003E4001E1758F4E9E0EA93AA85BB85EE27A10F0E
:1003F400BE1FAC9103DF1F5FF2CFE1E0EA93ACE0F4
:10040400FDDEEDE0EA93A0E81ADF18ECA4E004DFD7
:100414000E2F1150103011F0E07309F001C0F6CF27
:10042400EDE0EA93A0E813DF103011F4E0E0FEC041
:10043400A6E0F2DEEB7111F0E0E0F8C0AAE0ECDE39
:100444000E2FACE0E9DEE7703E2F303039F0E02FBC
:10045400E150EE0FEE0FEE0FE30F04C0E02FEE0FAE
:10046400EE0FEE0FAC81BD81EC9310E0101778F421
:10047400E12FAE81BF81F0E0EA0FFB1FFF93EF9302
:10048400A9E0CADEAF91BF91EC931F5FEFCFE1E02B
:10049400CDC0BA93AA9322971A930A931E8100E0BF
:1004A400EDE0EA93A7E0AADEEDB7FEB7FA93EA938C
:1004B4001F93E1E0EA93FE013596FA93EA93ADB710
:1004C400BEB70F9378DF0F911F91E03011F4E0E095
:1004D40011C0EDE00E94A406003111F0E0E00AC072
:1004E400EA81AC81BD81EC93EB81AC81BD81119635
:1004F400EC93E1E01981088127960895BA93AA93B1
:100504002C971A930A9310E0E889EC87E0E2ED87D0
:10051400EDE00E94A406FE013C96FA93EA93E2E021
:10052400EA93FE013596FA93EA93ADB7BEB71F93EB
:1005340042DF1F91E03011F4E0E01AC0183211F0EC
:10054400E0E016C000E0053090F4E02FAE85BF85F2
:10055400F0E0EA0FFB1F0F01E02FF0E0DE0112963E
:10056400AE0FBF1FEC91D001EC930F5FECCFE1E035
:100574001981088161960895BA93AA9325970E94D8
:10058400460730E0E3E90E94B50611F4E0E04EC00E
:10059400AC81A83879F5ED81A985BA85EC93EE8113
:1005A400A985BA851196EC93EF81A985BA8512962F
:1005B400EC93E5E90E94B50611F4E0E037C00E942F
:1005C400BC0611F0E0E032C0EC81A985BA8513962F
:1005D400EC93ED81A985BA851496EC93EE81A985F7
:1005E400BA851596EC93EF81A985BA851696EC9396
:1005F40037E01BC00E94BC0611F0E0E017C010E019
:10060400143090F4E12FA985BA85F0E0EA0FFB1FBE
:100614000F01E12FF0E0DE011496AE0FBF1FEC9145
:10062400D001EC931F5FECCF34E0E32F0E944D0721
:100634002B960895659710E000E0E0E0EABBEBBB81
:10064400E0EBE7BBE0E0E8BBE4BBE5BBE1BBE2BB5E
:10065400E3BFE2BFECBFEFBDEEBDEDBDECBDE7BD5A
:10066400E6BDEBBDEABDE9BDE8BDE2BDE5BDE4BD67
:10067400E3BDE9BFE5BFE4BFEAB9E0E8E8B9E0E01B
:10068400E0BFE6B9E2E5EDB9E0E0EEB9E6BFBC9A59
:10069400C49AA0E15BD10E94C706AAEEB0E043D1A0
:1006A4000E94CE06A9EFB0E03ED1A0E9B1E00E94DD
:1006B4002507ADB7BEB71F9300DE1F910E2F03D1E0
:1006C400FE01FA93EA93E8E0F1E0FA93EA93E12F6A
:1006D4000E94D30684E00E9451062896E0E0EA9343
:1006E400A0E0E4D0DE0110D1003031F40E94CE0647
:1006F400A3E1B1E018D1FFCF0E94CE06A0E6B2E09C
:1007040003D1A8E5B2E00E942507BDDD2D97E0E006
:10071400E8830E94D90609F45DC0DE0111962CDF3E
:10072400E883E03009F455C00E94C706A1E3B1E0B4
:10073400FAD0A881A43081F40E94E106EA850E94DF
:10074400D306EF850E94D306EC890E94D30680E18C
:100754000E945106649632C00E94E106EA850E9416
:10076400D306EF850E94D306EC890E94D30680E16C
:100774000E94510664960E94CE06DE011D96C4D0E6
:10078400A8EEB3E00E9425070E94C706A5E5B1E0E4
:10079400CAD0FE013D96FA93EA93E8E4F1E0FA93B5
:1007A400EA93E9850E94D306EE850E94D306EB897D
:1007B4000E94D3068CE00E9451066096E0E0EA9322
:1007C400A1E074D0DE011D969FD0A0EBB4E00E949E
:1007D400250745C0E091EF02E03041F40E94C706CE
:1007E400A0E6B1E0A0D0E1E0E093EF02EFE0EA930D
:1007F400A0E05CD0A091F002AF5FA093F002A15002
:10080400E3E0EA23F0E0EF50FD4FA08168D00E94BE
:10081400D90629F0E0E0E093EF022D9677CFA6E920
:10082400B0E00E942507E091F502F091F602EA5645
:10083400FF4FE093F502F093F602A091F502B09118
:10084400F602AC3DE5E0BE0750F00E94CE06AFE6EE
:10085400B1E069D0E0E0E093F502E093F602A6E9A6
:10086400B0E00E9425072D9651CFFFCFAA93E5B3A0
:10087400EF70AE2FE881E07FEA2BE5BB8DE08A952F
:10088400F1F7AA9A8DE08A95F1F7AA988DE08A95F6
:10089400F1F78FC0AA93A881E9DFE881E295E883A4
:1008A400A881E4DF85E88A95F1F783C0AA93E881FB
:1008B400F0E0E950FD4FE081A981AE0FEBDF5980F4
:1008C400488022960895A2E00E94EB06ACE0E2DFA5
:1008D400A1E00E94EB06E0E04E2E5E2E0895AA935E
:1008E400A881AA3011F0571448F0E0E0EA93439449
:1008F400A42DDCDFA881AA3009F45BC05394A89A24
:10090400A881C8DFA89855C0BA93AA931A93A9815D
:10091400BA81ED91A983BA831E2FE03019F0A12F7B
:10092400DEDFF5CF10C0BA93AA931A93E981FA8156
:100934003196E983FA833197E4911E2FE03019F060
:10094400A12FCDDFF3CF188123960895AA93E4B3A2
:10095400E06FE4BBA29AA09AA19AAA98A898A99831
:100964007880E881E058E093F902E881E054E0936C
:10097400FA02A4E1B0E00E9425070E94F1060E9459
:10098400F1060E94F106A0E271DF88EC90E0019785
:10099400F1F7A8E27FDFA4E07DDFA5E87BDFA6E036
:1009A40079DF91DF06C0AA93E881EFB9779BFECF88
:1009B400EFB121960895BA93AA931A930A93AA8140
:1009C400BB8112960E943707309759F1AA81BB81E7
:1009D40014960E9437078F01309761F00230E0E0EF
:1009E4001E0798F0F80131978F01AA81BB811496F4
:1009F400ED93FC93AA81BB811296ED91FD91319602
:100A0400FE93EE933197AC81A083AA81BB810E94AF
:100A14003707FF232AF0ED91FD913196FE93EE9373
:100A240006C0AA81BB81EFEFFFEFED93FC93198120
:100A3400088125960895BA93AA9326970E9444079D
:100A440010E0AC85BD85E0E0F0E0ED93FC93EA892D
:100A5400FB893196EA8BFB8B3197E4912E2FE030A2
:100A640009F415C1E12FE03039F4253211F411E015
:100A740002C00E94F9060AC1E130A9F4253219F432
:100A84000E94F90602C112E040E000E02D3211F4A8
:100A940001E0FCC02B3211F44BE2F8C0203211F417
:100AA40040E2F4C002C0E23039F450E013E02033F5
:100AB40011F40068EBC003C0E33009F0E7C0203351
:100AC40010F02A3308F007C0AAE05A9F502DE22FF5
:100AD400E0535E0FDBC0E22FE33649F40E940007C7
:100AE400E889F989A481AA930E940607CEC0E33756
:100AF40041F40E9400070E940C070E9485061E2FE5
:100B04000AC0E03761F40E9400070E940C070E94AB
:100B140091061E2F086002600F7730E034C0E4367F
:100B240011F0E93611F4046002C0E53731F4E4E56C
:100B3400F0E0EE83FF8315E00CC0E83511F40860A3
:100B440003C0E83709F0A1C0EEE5F0E0EE83FF83CF
:100B540014E002FF14C00E9400070E941607AB8530
:100B6400AA233AF4EA85FB850E943307EA87FB87C8
:100B74004DE2403011F01F5F01C00B7F04C00E94A2
:100B840000070E94160700FD11C0151778F407FF2F
:100B940008C002FF04C00B7F242F115001C020E3C2
:100BA40001C020E20E94F9065150EFCF312F01FF1E
:100BB40017C03030A1F003FF06C0EE81FF812591FC
:100BC400EE83FF8305C0AE81BF812D91AE83BF83C9
:100BD4000E94F906503009F051503150EACF4BC011
:100BE40020E3EE81FF810E943B07E887F987EE81CD
:100BF400FF813296EE83FF83E885F985AA85BB855C
:100C0400AE17BF0750F02F5FA885B985EA85FB852D
:100C1400EA1BFB0BEA87FB87EFCF2A3328F003FF9D
:100C240002C0295F01C0295D04FD1AC0213320F4EC
:100C3400A885B985119709F409C0531710F000FF6E
:100C440001C013C020E207FF0BC020E3006102FFD4
:100C540007C00B7F4A930E940607503009F0515099
:100C64000E94F906503009F051503150A885B985D9
:100C7400129708F0B5CF00FF08C0503031F0515042
:100C8400E0E2EA930E940607F8CF10E0E0CEAC85DC
:100C9400BD850E9437070E944B0764960895FF9212
:100CA400F82E26970E9446070E941E07309719F4D3
:100CB400EFEFFFEF23C0DE0116960E942F078D0190
:100CC4000E941E07EE83FF83E0E0E887E987DE01E8
:100CD4001A960E942F070E943707FA93EA931A93F1
:100CE4000A93EDEDF4E0FA93EA93DE011A96A3DE9B
:100CF4009F01AE81BF81E0E0EC93F9010E944D07B2
:100D04002A96FF900895BA93AA93A991B991EE27D0
:100D1400FF276D91662311F03196FBCF0895BA93A6
:100D2400AA93AA27BB27E991F9910590002011F015
:100D34001196FBCFFD010895AA93E981EA93AA8154
:100D44000C940E01EA93A0E00C940001DE01AC5B6C
:100D5400BF4F0D90BC91A02D1C930895E02FF0E09F
:100D6400DE0114960895EA93DE0115960E9480022E
:100D7400E0300895ED81AC81EA27AE81EA27AF81A6
:100D8400EA270E2FE885E01708950E946504E0E045
:100D9400EA93A0E00C945804E0E0EA93A1E00C94F8
:100DA4005804FF27662777270E943F070895E6E245
:100DB400EA93DE011C960E944B02E0300895FE0186
:100DC4003D96FA93EA93E0E4F1E0FA93EA93ED8135
:100DD400E8CF0E944C04A3E0B0E00C942507A0E304
:100DE4000E94380488EC90E00197F1F708952A9363
:100DF400AD85BE85EF85F88909950895E889F98957
:100E04003497E88BF98B0895AD85BE85EF85F88915
:100E140009950895A889B98914960E943707EE8325
:100E2400FF83AE81BF810895A889B98914960E9471
:100E34003707EA87FB870895DE011C960E942F0777
:100E44000E9437070895109639F0A89580ED97E031
:100E54000197F1F71197C9F708950024AF0DB01D5C
:100E64000895F195E195F0400895ED91FC91119765
:100E740008950590F491E02D08957A936A93FA9376
:100E8400EA9308955A934A933A932A931A930A93A6
:100E940008955D814C813B812A81198108810895DF
:00000001FF
